S0210000586D6567615F41445F44415F4C6167436F6E74726F6C6C65722E73726563B2
S11300000C9400010C9426010C9426010C942601F6
S11300100C9426010C9426010C9426010C942601C0
S11300200C9426010C9426010C9426010C942601B0
S11300300C9426010C9426010C9426010C942601A0
S11300400C9426010C9426010C9426010C94260190
S11300500C9439010C9426010C9426010C9426016D
S11300600C9426010C9426010C9426010C94260170
S11300700C9426010C9426010C9426010C94260160
S11300800C9426010C9426010C9426010C94260150
S11300900C9426010C9426010C9426010C94260140
S11300A00C9426010C9426010C9426010C94260130
S11300B00C9426010C9426010C9426010C94260120
S11300C00C9426010C9426010C9426010C94260110
S11300D00C9426010C9426010C9426010C94260100
S11300E00C9426010C9426010C9426010C942601F0
S11300F00C9426010C9426010C9426010C942601E0
S11301000C9426010C9426010C9426010C942601CF
S11301100C9426010C9426010C9426010C942601BF
S11301200C9426010C9426010C9426010C942601AF
S11301300C9426010C9426010C9426010C9426019F
S11301400C9426010C9426010C9426010C9426018F
S11301500C9426010C9426010C9426010C9426017F
S11301600C9426010C9426010C9426010C9426016F
S11301700C9426010C9426010C9426010C9426015F
S11301800C9426010C9426010C9426010C9426014F
S11301900C9426010C9426010C9426010C9426013F
S11301A00C9426010C9426010C9426010C9426012F
S11301B00C9426010C9426010C9426010C9426011F
S11301C00C9426010C9426010C9426010C9426010F
S11301D00C9426010C9426010C9426010C942601FF
S11301E00C9426010C9426010C9426010C942601EF
S11301F00C9426010C9426010C9426010C942801DD
S113020011241FBECFEFCDBFDFE3DEBF00E00CBF84
S113021018BE19BE1ABE1BBE20E2A6E0B0E201C0A1
S11302201D92A035B207E1F710E2A0E0B0E2E0EDE4
S1130230F0E100E00BBF02C007900D92A630B107B9
S1130240D9F71BBE0E94EB030C9466080C940000C3
S1130250CF93C82F8A3019F48DE00E942801809131
S1130260B10985FFFCCFC093B00980E090E0CF9145
S113027008951F920F920FB60F92112408B60F9291
S113028018BE09B60F9219BE0BB60F921BBECF92C1
S1130290DF92EF92FF922F933F934F935F936F936D
S11302A07F938F939F93AF93BF93EF93FF9320918B
S11302B022203091232040912420509125206091C8
S11302C016207091172080911820909119200E9477
S11302D049046093162070931720809318209093FC
S11302E0192020E030E040E85FE30E94650688239F
S11302F064F080E090E0A0E8BFEB80931620909338
S11303001720A0931820B0931920C0901620D090E5
S11303101720E0901820F090192020E030E0A90187
S1130320C701B6010E94B504181644F010921E20AD
S113033010921F20109220201092212020E030E003
S1130340A901C701B6010E946506181664F480E08D
S113035090E0A0E8BFE380931E2090931F20A09319
S11303602020B093212020912620309127204091F5
S113037028205091292060911E2070911F20809187
S11303802020909121200E946A0660932E20709371
S11303902F208093302090933120E0E0F2E08081A0
S11303A0846080838091230280FFFCCFE0E0F2E050
S11303B081E083A384A195A180931C2090931D20A8
S11303C060911C2070911D2080E090E00E945B05EC
S11303D021E038E040E85BE30E946A0620E030E078
S11303E040E051E40E9448049B01AC016093062064
S11303F070930720809308209093092060912E2009
S113040070912F2080913020909131200E944804D7
S113041060933A2070933B2080933C2090933D203E
S113042060913A2070913B2080913C2090913D2036
S11304302DEC3CEC44ED53E40E946A066B017C0114
S11304406091362070913720809138209091392026
S11304509B01AC010E9449049B01AC01C701B60198
S11304600E9449046B017C01609112207091132059
S113047080911420909115209B01AC010E944904A5
S11304809B01AC01C701B6010E9448046B017C01C9
S113049060914220709143208091442090914520A6
S11304A02DEC3CEC43ED53E40E946A069B01AC0145
S11304B0C701B6010E9448046B017C0160912A20A7
S11304C070912B2080912C2090912D2026E636EAE5
S11304D04BE354E40E946A069B01AC01C701B601D8
S11304E00E94490426E636E24CE354E40E94BA042E
S11304F060930E2070930F2080931020909311200E
S113050080913A2090913B20A0913C20B0913D20D5
S11305108093362090933720A0933820B0933920CD
S11305208091362090913720A0913820B0913920C5
S11305308093422090934320A0934420B09345207D
S113054080910E2090910F20A0911020B091112045
S11305508093122090931320A0931420B09315201D
S11305608091122090911320A0911420B091152015
S113057080932A2090932B20A0932C20B0932D209D
S113058080910E2090910F20A0911020B091112005
S1130590BC01CD019F77C0903220D0903320E090F1
S11305A03420F0903520A70196010E946506882327
S11305B094F080910E2090910F20A0911020B09182
S11305C01120B7FBF7F8C0920E20D0920F20E092D2
S11305D01020F092112060910E2070910F208091D4
S11305E010209091112020E030E040E351E40E947B
S11305F0490420E030EF4FE755E40E946A0620E00A
S113060030E040EA51E40E94BA040E9498050E9436
S11306102C0560931A2070931B208091250380FF82
S1130620FCCF80911A2090911B20809338039093E3
S11306303903E4E4F6E0908181E089278083FF9127
S1130640EF91BF91AF919F918F917F916F915F9146
S11306504F913F912F91FF90EF90DF90CF900F90AB
S11306600BBE0F9009BE0F9008BE0F900FBE0F90E7
S11306701F901895AAECB1E092E09C93E82FF0E06B
S113068084911C920895CF93DF93EC01C11583E00C
S1130690D80789F480E30E943A03898781E30E94A2
S11306A03A03888784E30E943A038B8785E30E9498
S11306B03A038A8710C082E30E943A03898783E35E
S11306C00E943A03888786E30E943A038B8787E374
S11306D00E943A038A87DF91CF910895CF93DF93E5
S11306E0EC01C11582E0D80739F480E20E943A0394
S11306F090E08C879D8706C084E20E943A0390E0D4
S11307008C879D87DF91CF9108958CE0809321069B
S113071081E08093410682E08093500080915100F3
S113072081FFFCCF88ED84BF81E08093400080E0AE
S113073092E00E946E03E0E0F2E08181897E818391
S113074082818F7882838481887F82608483A0E21F
S1130750B2E08C91807E81608C938AE111968C93B7
S113076080818160808380E293E00E944303E0E221
S1130770F3E0818180648183828188608283138E27
S113078080818D60808308959C01E0E4F8E081819C
S1130790818396819160968326A337A380818360A9
S11307A080830895E0E6F6E080E8818380E4828334
S11307B0E0EBF9E08581836085838BE4868380EABE
S11307C0878384818860848360E070E088E291E0BC
S11307D00E94D706089580E090E0A0ECB0E48093F6
S11307E0322090933320A0933420B093352080E0BE
S11307F090E0A0E4B0EC80932E2090932F20A0935F
S11308003020B093312080E090E0A0E8BFE38093F3
S11308103E2090933F20A0934020B09341200E941B
S113082085030E94D20380E49FE10E94C40387E011
S11308308093A200789480E090E0A0E8BFEB8093DE
S1130840162090931720A0931820B093192080E0CD
S113085090E0A0EAB0E480930A2090930B20A09348
S11308600C20B0930D208093262090932720A093F2
S11308702820B09329208FE692E1A3E8BAE380937D
S1130880222090932320A0932420B0932520FFCFEF
S11308905058BB27AA270E9460040C9413060E9498
S11308A0050638F00E940C0620F039F49F3F19F435
S11308B026F40C9402060EF4E095E7FB0C94D305A1
S11308C0E92F0E94240658F3BA17620773078407B6
S11308D0950720F079F4A6F50C945E060EF4E095E5
S11308E00B2EBA2FA02D0B01B90190010C01CA01E6
S11308F0A0011124FF27591B99F0593F50F4503E91
S113090068F11A16F040A22F232F342F4427585F82
S1130910F3CF469537952795A795F0405395C9F79A
S11309207EF41F16BA0B620B730B840BBAF0915052
S1130930A1F0FF0FBB1F661F771F881FC2F70EC0F1
S1130940BA0F621F731F841F48F4879577956795C4
S1130950B795F7959E3F08F0B0CF9395880F08F0B0
S11309609927EE0F9795879508950E94AF0508F48F
S113097081E008950E94CE040C9413060E940C0694
S113098058F00E94050640F029F45F3F29F00C94CA
S1130990D30551110C945F060C9402060E942406A0
S11309A068F39923B1F3552391F3951B550BBB279A
S11309B0AA2762177307840738F09F5F5F4F220FDF
S11309C0331F441FAA1FA9F335D00E2E3AF0E0E8D6
S11309D032D091505040E695001CCAF72BD0FE2F20
S11309E029D0660F771F881FBB1F261737074807B4
S11309F0AB07B0E809F0BB0B802DBF01FF2793586C
S1130A005F4F3AF09E3F510578F00C94D3050C9457
S1130A105F065F3FE4F3983ED4F386957795679538
S1130A20B795F7959F5FC9F7880F911D96958795A0
S1130A3097F90895E1E0660F771F881FBB1F6217BF
S1130A4073078407BA0720F0621B730B840BBA0B7D
S1130A50EE1F88F7E09508950E942C0688F09F57B2
S1130A6098F0B92F9927B751B0F0E1F0660F771FCE
S1130A70881F991F1AF0BA95C9F714C0B13091F0C4
S1130A800E945E06B1E008950C945E06672F782FED
S1130A908827B85F39F0B93FCCF386957795679589
S1130AA0B395D9F73EF490958095709561957F4FF5
S1130AB08F4F9F4F0895E89409C097FB3EF490959B
S1130AC08095709561957F4F8F4F9F4F9923A9F023
S1130AD0F92F96E9BB279395F695879577956795B2
S1130AE0B795F111F8CFFAF4BB0F11F460FF1BC0F6
S1130AF06F5F7F4F8F4F9F4F16C0882311F096E989
S1130B0011C0772321F09EE8872F762F05C0662336
S1130B1071F096E8862F70E060E02AF09A95660FEF
S1130B20771F881FDAF7880F9695879597F90895A8
S1130B300E94460690F09F3748F4911116F00C94E9
S1130B405F0660E070E080E89FEB089526F41B16D2
S1130B50611D711D811D0C94D9050C94F405990F28
S1130B600008550FAA0BE0E8FEEF16161706E80773
S1130B70F907C0F012161306E407F50798F0621B94
S1130B80730B840B950B39F40A2661F0232B242B69
S1130B90252B21F408950A2609F4A140A6958FEF88
S1130BA0811D811D089597F99F6780E870E060E0DA
S1130BB00895882371F4772321F09850872B762F9A
S1130BC007C0662311F499270DC09051862B70E05D
S1130BD060E02AF09A95660F771F881FDAF7880F6E
S1130BE09695879597F908959F3F31F0915020F499
S1130BF0879577956795B795880F911D96958795F5
S1130C0097F908959FEF80EC089500240A9416162E
S1130C10170618060906089500240A9412161306E6
S1130C20140605060895092E0394000C11F4882374
S1130C3052F0BB0F40F4BF2B11F460FF04C06F5F90
S1130C407F4F8F4F9F4F089557FD9058440F551F66
S1130C5059F05F3F71F04795880F97FB991F61F03A
S1130C609F3F79F087950895121613061406551FB1
S1130C70F2CF4695F1DF08C0161617061806991F1D
S1130C80F1CF869571056105089408950E942C069C
S1130C90A0F0BEE7B91788F4BB279F3860F4161696
S1130CA0B11D672F782F8827985FF7CF86957795A2
S1130CB06795B11D93959639C8F30895E894BB27B9
S1130CC066277727CB0197F908950E94AF0508F4AA
S1130CD08FEF08950E947D060C9413060E9405066A
S1130CE038F00E940C0620F0952311F00C94D305E3
S1130CF00C94020611240C945F060E94240670F3DF
S1130D00959FC1F3950F50E0551F629FF001729FAC
S1130D10BB27F00DB11D639FAA27F00DB11DAA1FBB
S1130D20649F6627B00DA11D661F829F2227B00D08
S1130D30A11D621F739FB00DA11D621F839FA00D93
S1130D40611D221F749F3327A00D611D231F849FE3
S1130D50600D211D822F762F6A2F11249F5750403A
S1130D609AF0F1F088234AF0EE0FFF1FBB1F661FB5
S1130D70771F881F91505040A9F79E3F510580F07E
S1130D800C94D3050C945F065F3FE4F3983ED4F3D0
S1130D90869577956795B795F795E7959F5FC1F722
S1130DA0FE2B880F911D9695879597F908950F93BB
S1130DB01F93CF93DF93009731F46115710519F4F4
S1130DC080E090E03AC08B01EC016EE070E081E0DD
S1130DD090E00E942207FC01892B91F380E8838331
S1130DE00115110571F00287138781E883838091CF
S1130DF0462090914720892B21F4E0934620F093DC
S1130E0047202097C9F0C087D1878381826083837C
S1130E108091482090914920892B71F4E0934820D7
S1130E20F093492080914A2090914B20892B21F402
S1130E30E0934A20F0934B20CF01DF91CF911F9193
S1130E400F9108950F931F93CF93DF93869F800193
S1130E50879F100D969F100D1124C8010E943E0714
S1130E60EC01009729F0A80160E070E00E945F089F
S1130E70CE01DF91CF911F910F9108950F931F938E
S1130E80CF93DF938230910510F482E090E0E091FB
S1130E904E20F0914F2020E030E0A0E0B0E0309709
S1130EA019F1408151810281138148175907C8F013
S1130EB08417950769F4109731F012960C931297E2
S1130EC013961C9327C000934E2010934F2022C0EA
S1130ED02115310519F04217530718F49A01BD0181
S1130EE0EF01DF01F801DBCF21153105F9F0281BF3
S1130EF0390B2430310580F48A819B816115710599
S1130F0021F0FB018283938304C080934E2090934D
S1130F104F20FE01329644C0FE01E20FF31F81937D
S1130F20919322503109288339833AC020914C206F
S1130F3030914D20232B41F4209102203091032045
S1130F4020934C2030934D2020910020309101209B
S1130F502115310541F42DB73EB74091042050913D
S1130F600520241B350BE0914C20F0914D20E21715
S1130F70F307A0F42E1B3F0B2817390778F0AC01B8
S1130F804E5F5F4F2417350748F04E0F5F1F4093A5
S1130F904C2050934D208193919302C0E0E0F0E007
S1130FA0CF01DF91CF911F910F910895CF93DF93DC
S1130FB0009709F481C0FC01329712821382A09138
S1130FC04E20B0914F20109781F420813181820FFF
S1130FD0931F20914C2030914D202817390751F54B
S1130FE0E0934C20F0934D2067C0ED0120E030E009
S1130FF0CE17DF0740F44A815B819E0141155105FC
S1131000F1F0EA01F5CFC283D38340815181840F8B
S1131010951FC817D90759F488819981840F951FA2
S11310200296808391838A819B8182839383211595
S1131030310529F4E0934E20F0934F203DC0E9019F
S1131040EA83FB8349915991C40FD51FEC17FD071F
S113105061F480819181840F951F0296E901888350
S11310609983828193818A839B83E0E0F0E01296E6
S11310708D919C911397009719F0FD01DC01F7CF36
S11310808D919C9111979D012E5F3F4F820F931F6D
S113109020914C2030914D202817390769F430975E
S11310A029F410924E2010924F2002C01282138213
S11310B0A0934C20B0934D20DF91CF910895DC0193
S11310C001C06D9341505040E0F70895F894FFCF6C
S10910D000005020200086
S9030000FC
