S02B0000786D6567615F4844445F537461746553706163655F66756C6C4F62735F496E7465677261746F722E65
S11300000C9400010C9426010C9426010C942601F6
S11300100C9426010C9426010C9426010C942601C0
S11300200C9426010C9426010C9426010C942601B0
S11300300C9426010C9426010C9426010C942601A0
S11300400C9426010C9426010C9426010C94260190
S11300500C9439010C9426010C9426010C9426016D
S11300600C9426010C9426010C9426010C94260170
S11300700C9426010C9426010C9426010C94260160
S11300800C9426010C9426010C9426010C94260150
S11300900C9426010C9426010C9426010C94260140
S11300A00C9426010C9426010C9426010C94260130
S11300B00C9426010C9426010C9426010C94260120
S11300C00C9426010C9426010C9426010C94260110
S11300D00C9426010C9426010C9426010C94260100
S11300E00C9426010C9426010C9426010C942601F0
S11300F00C9426010C9426010C9426010C942601E0
S11301000C9426010C9426010C9426010C942601CF
S11301100C9426010C9426010C9426010C942601BF
S11301200C9426010C9426010C9426010C942601AF
S11301300C9426010C9426010C9426010C9426019F
S11301400C9426010C9426010C9426010C9426018F
S11301500C9426010C9426010C9426010C9426017F
S11301600C9426010C9426010C9426010C9426016F
S11301700C9426010C9426010C9426010C9426015F
S11301800C9426010C9426010C9426010C9426014F
S11301900C9426010C9426010C9426010C9426013F
S11301A00C9426010C9426010C9426010C9426012F
S11301B00C9426010C9426010C9426010C9426011F
S11301C00C9426010C9426010C9426010C9426010F
S11301D00C9426010C9426010C9426010C942601FF
S11301E00C9426010C9426010C9426010C942601EF
S11301F00C9426010C9426010C9426010C942801DD
S113020011241FBECFEFCDBFDFE3DEBF00E00CBF84
S113021018BE19BE1ABE1BBE10E2A0E0B0E2E8E4AC
S1130220FBE100E00BBF02C007900D92AE38B107AE
S1130230D9F71BBE20E2AEE8B0E201C01D92A23F96
S1130240B207E1F70E94BC060C94A20D0C940000C6
S1130250CF93C82F8A3019F48DE00E942801809131
S1130260A10885FFFCCFC093A00880E090E0CF9167
S113027008951F920F920FB60F92112408B60F9291
S113028018BE09B60F9219BE0AB60F921ABE0BB663
S11302900F921BBE4F925F926F927F928F929F92AA
S11302A0AF92BF92CF92DF92EF92FF922F933F9340
S11302B04F935F936F937F938F939F93AF93BF936A
S11302C0EF93FF93CF93DF93CDB7DEB72897CDBFDE
S11302D0DEBF80912402909125028093BE209093EA
S11302E0BF206091BE207091BF2080E090E00E940A
S11302F0270820E030EF4FE755E40E947F072FE8FE
S113030032EC45EF5CE30E940D076093BA207093D2
S1130310BB208093BC209093BD208091BA20909103
S1130320BB20A091BC20B091BD208093D420909399
S1130330D520A093D620B093D72080912008909107
S113034021088093C8209093C9208091C82090915F
S1130350C920992324F41092C8201092C9206091D6
S1130360C8207091C920072E000C880B990B0E949D
S1130370290820E030E04FE254E40E947F076093B4
S1130380C4207093C5208093C6209093C7206091A9
S1130390C4207091C5208091C6209091C72020E090
S11303A030EF4FE755E40E94DE086093C02070935D
S11303B0C1208093C2209093C3206091C02070918B
S11303C0C1208091C2209091C32020E030E0A90197
S11303D00E947A07882344F41092C0201092C1200E
S11303E01092C2201092C3208DEC9CECACECBEE3C6
S11303F08093AE209093AF20A093B020B093B1200F
S113040060911E2070911F208091202090912120C6
S11304102091DC203091DD204091DE205091DF20BE
S11304200E94DE086B017C0160911A2070911B20F0
S113043080911C2090911D202091E4203091E52092
S11304404091E6205091E7200E94DE084B015C01B8
S11304506091162070911720809118209091192096
S11304602091E0203091E1204091E2205091E3205E
S11304700E94DE089B01AC01C501B4010E940E0775
S11304804B015C0160911220709113208091142023
S1130490909115202091D0203091D1204091D220EC
S11304A05091D3200E94DE089B01AC01C501B40128
S11304B00E940E079B01AC01C701B6010E940D0703
S11304C06093B6207093B7208093B8209093B9209E
S11304D08091B6209091B720A091B820B091B92016
S11304E0BC01CD019F7720914A2030914B2040914F
S11304F04C2050914D200E94D9088823D4F040917B
S1130500B6205091B7206091B8207091B9208091A5
S11305104A2090914B20A0914C20B0914D2077FB24
S1130520B7F98093B6209093B720A093B820B093E6
S1130530B9206091B6207091B7208091B820909135
S1130540B9202091AE203091AF204091B02050913D
S1130550B1200E940E0720918E2030918F2040916F
S11305609020509191200E94DE0820E030E040E08D
S113057055E40E940E076093B2207093B3208093D9
S1130580B4209093B5206091B2207091B3208091F3
S1130590B4209091B52020E030E0A9010E947A07B0
S11305A0882344F41092B2201092B3201092B42005
S11305B01092B5206091B2207091B3208091B42044
S11305C09091B52020E030EF4FE755E40E94D90820
S11305D0181664F480E090EFAFE7B5E48093B2209E
S11305E09093B320A093B420B093B52080912503B9
S11305F080FFFCCF6091C0207091C1208091C22007
S11306009091C3200E94F1076093380370933903DB
S11306108091250381FFFCCF6091B2207091B320BB
S11306208091B4209091B5200E94F10760933A0321
S113063070933B0380E8809367068091C420909177
S1130640C520A091C620B091C7208093D820909354
S1130650D920A093DA20B093DB20609146207091DA
S1130660472080914820909149202091A6203091E4
S1130670A7204091A8205091A9200E94DE086B0178
S11306807C0160914220709143208091442090919C
S113069045202091A2203091A3204091A420509184
S11306A0A5200E94DE089B01AC01C701B6010E948F
S11306B00E076B017C0160919620709197208091C8
S11306C098209091992020919E2030919F204091D4
S11306D0A0205091A1200E94DE089B01AC01C7011B
S11306E0B6010E940E076B017C016091922070910B
S11306F09320809194209091952020911E203091F8
S11307001F2040912020509121200E94DE0820913A
S11307109A2030919B2040919C2050919D200E94D2
S1130720DE089B01AC01C701B6010E940E076B01F4
S11307307C0160910E2070910F2080911020909187
S113074011202091AA203091AB204091AC205091EF
S1130750AD200E94DE089B01AC01C701B6010E94D6
S11307600E076093E4207093E5208093E620909335
S1130770E72060913E2070913F208091402090912D
S113078041202091A6203091A7204091A82050918B
S1130790A9200E94DE086B017C0160913A207091CF
S11307A03B2080913C2090913D202091A2203091CB
S11307B0A3204091A4205091A5200E94DE089B0113
S11307C0AC01C701B6010E940E076B017C01609168
S11307D036207091372080913820909139202091D3
S11307E09E2030919F204091A0205091A1200E94F2
S11307F0DE089B01AC01C701B6010E940E076B0124
S11308007C0160912620709127208091282090916E
S1130810292020911E2030911F20409120205091AA
S113082021200E94DE0820919A2030919B20409143
S11308309C2050919D200E94DE089B01AC01C701C1
S1130840B6010E940E076B017C0160910A20709131
S11308500B2080910C2090910D202091AA203091A2
S1130860AB204091AC205091AD200E94DE089B014A
S1130870AC01C701B6010E940E076093E02070939B
S1130880E1208093E2209093E320609132207091E4
S1130890332080913420909135202091A6203091EE
S11308A0A7204091A8205091A9200E94DE086B0146
S11308B07C0160912E2070912F20809130209091A6
S11308C031202091A2203091A3204091A420509166
S11308D0A5200E94DE089B01AC01C701B6010E945D
S11308E00E076B017C0160912A2070912B2080916E
S11308F02C2090912D2020919E2030919F2040917A
S1130900A0205091A1200E94DE089B01AC01C701E8
S1130910B6010E940E076B017C0160912220709148
S11309202320809124209091252020911E20309115
S11309301F2040912020509121200E94DE08209108
S11309409A2030919B2040919C2050919D200E94A0
S1130950DE089B01AC01C701B6010E940E076B01C2
S11309607C0160910620709107208091082090916D
S113097009202091AA203091AB204091AC205091C5
S1130980AD200E94DE089B01AC01C701B6010E94A4
S11309900E076093D0207093D1208093D22090933F
S11309A0D3206091D4207091D5208091D62090914D
S11309B0D7202091D8203091D9204091DA2050912D
S11309C0DB200E940D0720919A2030919B204091BA
S11309D09C2050919D200E940E076093DC20709310
S11309E0DD208093DE209093DF208091E42090919D
S11309F0E520A091E620B091E7208093A620909373
S1130A00A720A093A820B093A9208091E0209091E2
S1130A10E120A091E220B091E3208093A220909362
S1130A20A320A093A420B093A5208091D0209091DE
S1130A30D120A091D220B091D32080939E20909376
S1130A409F20A093A020B093A1208091DC209091BE
S1130A50DD20A091DE20B091DF2080939A20909336
S1130A609B20A0939C20B0939D208091D8209091AE
S1130A70D920A091DA20B091DB208093AA20909312
S1130A80AB20A093AC20B093AD206091B6207091C0
S1130A90B7208091B8209091B92020E030E048EC54
S1130AA052E40E94DE082B013C016091A220709167
S1130AB0A3208091A4209091A52020E030E048EC70
S1130AC052E40E94DE084B015C016091A620709103
S1130AD0A7208091A8209091A92020E030E048EC44
S1130AE052E40E94DE086B017C016091D820709171
S1130AF0D9208091DA209091DB2020E030E048EC8E
S1130B0052E40E94DE0869837A838B839C8360911C
S1130B10D4207091D5208091D6209091D72020E0C8
S1130B2030E048EC52E40E94DE086D837E838F83BC
S1130B309887C301B2010E94F1077F936F93C501A7
S1130B40B4010E94F1077F936F93C701B6010E941D
S1130B50F1077F936F9369817A818B819C810E94D5
S1130B60F1077F936F936D817E818F8198850E94B9
S1130B70F1077F936F9382E590E29F938F930E9496
S1130B809609CDBFDEBF2896CDBFDEBFDF91CF91E2
S1130B90FF91EF91BF91AF919F918F917F916F9151
S1130BA05F914F913F912F91FF90EF90DF90CF9005
S1130BB0BF90AF909F908F907F906F905F904F9079
S1130BC00F900BBE0F900ABE0F9009BE0F9008BE87
S1130BD00F900FBE0F901F901895E0E5F0E0808114
S1130BE0826080838091510081FFFCCF88ED84BFB7
S1130BF081E0809340000895E0E4F6E088E081839A
S1130C0084E08283E0EAF8E08581836085838BE673
S1130C10868380EB878384818860848360E070E0CE
S1130C2088E291E00E944B090895E0E6F6E083E053
S1130C30828380898360808BE0E8F1E088E68083AA
S1130C40808589608087E0E0F8E08381886683831B
S1130C508081816080830895AAECB1E092E09C9346
S1130C60E82FF0E084911C920895CF93DF93EC0178
S1130C70C11582E0D80739F480E20E942C0690E086
S1130C808C879D8706C084E20E942C0690E08C87A6
S1130C909D87DF91CF91089580E092E00E94350610
S1130CA0E0E0F2E0818188608183828182608283D6
S1130CB080A1816080A3848182608483808181603B
S1130CC080830895CF93DF93EC01C11583E0D807A7
S1130CD089F480E30E942C06898781E30E942C0614
S1130CE0888784E30E942C068B8785E30E942C0668
S1130CF08A8710C082E30E942C06898783E30E94BE
S1130D002C06888786E30E942C068B8787E30E9443
S1130D102C068A87DF91CF91089580E293E00E94A8
S1130D206206E0E2F3E081818064818382818283D0
S1130D30118E138E80818D60808380E093E00E9409
S1130D406206E0E0F3E081818064818382818283B2
S1130D50118E138E80818D60808308959C01E0E460
S1130D60F8E08181818396819160968326A337A3DD
S1130D7080818360808308950E94ED052FEF83EDC9
S1130D8090E3215080409040E1F700C000000E94B1
S1130D9015060E94FC050E948D060E944C0680E800
S1130DA08093610660914A2070914B2080914C2081
S1130DB090914D209B01AC010E940E079B01AC0158
S1130DC060E070EF8FE795E40E947F0760938E20C8
S1130DD070938F20809390209093912060914E2067
S1130DE070914F20809150209091512020E034E266
S1130DF044EF5AE40E94DE080E94F8076093CA2078
S1130E007093CB208091CA209091CB200E94AE0693
S1130E1087E08093A2007894FFCF5058BB27AA277D
S1130E200E9425070C949F080E94910838F00E94A4
S1130E30980820F039F49F3F19F426F40C948E0896
S1130E400EF4E095E7FB0C948808E92F0E94B008A3
S1130E5058F3BA17620773078407950720F079F4EB
S1130E60A6F50C94D2080EF4E0950B2EBA2FA02D03
S1130E700B01B90190010C01CA01A0011124FF2743
S1130E80591B99F0593F50F4503E68F11A16F0403E
S1130E90A22F232F342F4427585FF3CF469537953D
S1130EA02795A795F0405395C9F77EF41F16BA0B02
S1130EB0620B730B840BBAF09150A1F0FF0FBB1FB0
S1130EC0661F771F881FC2F70EC0BA0F621F731FF9
S1130ED0841F48F4879577956795B795F7959E3F56
S1130EE008F0B0CF9395880F08F09927EE0F9795E7
S1130EF0879508950E94640808F481E008950E948B
S1130F0093070C949F080E94980858F00E94910837
S1130F1040F029F45F3F29F00C94880851110C9497
S1130F20D3080C948E080E94B00868F39923B1F397
S1130F30552391F3951B550BBB27AA2762177307FB
S1130F40840738F09F5F5F4F220F331F441FAA1F8F
S1130F50A9F335D00E2E3AF0E0E832D0915050404B
S1130F60E695001CCAF72BD0FE2F29D0660F771FF9
S1130F70881FBB1F261737074807AB07B0E809F0DF
S1130F80BB0B802DBF01FF2793585F4F3AF09E3F64
S1130F90510578F00C9488080C94D3085F3FE4F36F
S1130FA0983ED4F3869577956795B795F7959F5FA7
S1130FB0C9F7880F911D9695879597F90895E1E0F3
S1130FC0660F771F881FBB1F621773078407BA0752
S1130FD020F0621B730B840BBA0BEE1F88F7E095AD
S1130FE008950E94F8076894B1110C94D3080895E9
S1130FF00E94B80888F09F5798F0B92F9927B751E5
S1131000B0F0E1F0660F771F881F991F1AF0BA95A8
S1131010C9F714C0B13091F00E94D208B1E008952C
S11310200C94D208672F782F8827B85F39F0B93F1E
S1131030CCF3869577956795B395D9F73EF490955B
S11310408095709561957F4F8F4F9F4F0895E894D9
S113105009C097FB3EF490958095709561957F4FFC
S11310608F4F9F4F9923A9F0F92F96E9BB279395AA
S1131070F695879577956795B795F111F8CFFAF4BA
S1131080BB0F11F460FF1BC06F5F7F4F8F4F9F4FEB
S113109016C0882311F096E911C0772321F09EE849
S11310A0872F762F05C0662371F096E8862F70E0AF
S11310B060E02AF09A95660F771F881FDAF7880F89
S11310C09695879597F90895990F0008550FAA0BDF
S11310D0E0E8FEEF16161706E807F907C0F0121647
S11310E01306E407F50798F0621B730B840B950B4A
S11310F039F40A2661F0232B242B252B21F408959F
S11311000A2609F4A140A6958FEF811D811D08953B
S113111097F99F6780E870E060E008959FEF80ECA6
S1131120089500240A941616170618060906089549
S113113000240A9412161306140605060895092EAF
S11311400394000C11F4882352F0BB0F40F4BF2B1E
S113115011F460FF04C06F5F7F4F8F4F9F4F08955E
S113116057FD9058440F551F59F05F3F71F0479554
S1131170880F97FB991F61F09F3F79F08795089539
S1131180121613061406551FF2CF4695F1DF08C058
S1131190161617061806991FF1CF86957105610575
S11311A008940895E894BB2766277727CB0197F91D
S11311B008950E94640808F48FEF08950E94F108CE
S11311C00C949F080E94910838F00E94980820F01F
S11311D0952311F00C9488080C948E0811240C9417
S11311E0D3080E94B00870F3959FC1F3950F50E0A7
S11311F0551F629FF001729FBB27F00DB11D639FC5
S1131200AA27F00DB11DAA1F649F6627B00DA11D6A
S1131210661F829F2227B00DA11D621F739FB00D10
S1131220A11D621F839FA00D611D221F749F332780
S1131230A00D611D231F849F600D211D822F762F19
S11312406A2F11249F5750409AF0F1F088234AF0F6
S1131250EE0FFF1FBB1F661F771F881F9150504062
S1131260A9F79E3F510580F00C9488080C94D3088C
S11312705F3FE4F3983ED4F3869577956795B795E9
S1131280F795E7959F5FC1F7FE2B880F911D969503
S1131290879597F908950F931F93CF93DF93009742
S11312A031F46115710519F480E090E03AC08B01C6
S11312B0EC016EE070E081E090E00E94AE0BFC0176
S11312C0892B91F380E883830115110571F002875E
S11312D0138781E883838091E8209091E920892B0A
S11312E021F4E093E820F093E9202097C9F0C08727
S11312F0D1878381826083838091EA209091EB205F
S1131300892B71F4E093EA20F093EB208091EC2098
S11313109091ED20892B21F4E093EC20F093ED20C3
S1131320CF01DF91CF911F910F910895CF93DF9358
S1131330CDB7DEB7AE014A5F5F4FFA01619171919B
S1131340AF018091EA209091EB200E94AA09DF91DD
S1131350CF9108952F923F924F925F926F927F9216
S11313608F929F92AF92BF92CF92DF92EF92FF92B1
S11313700F931F93CF93DF93CDB7DEB72B97CDBFDA
S1131380DEBF6C017B018A01FC0116821782838116
S113139081FFCCC1CE0101963C01F6019381F70196
S11313A093FD859193FF81917F01882309F4BAC14C
S11313B0853239F493FD859193FF81917F018532C4
S11313C029F4B60190E00E94080DE7CF912C212C5E
S11313D0312CFFE1F315D8F08B3279F038F48032F8
S11313E079F08332A1F4232D20611DC08D3261F088
S11313F0803369F4232D216016C0832D8260382E3A
S1131400E32DE4603E2E2AC0F32DF8601DC037FCA6
S11314102DC020ED280F2A3040F08E32B9F436FC6E
S113142081C1232D2064322E19C036FE06C08AE005
S1131430989E200D1124922E11C0EAE02E9E200DBC
S11314401124222EF32DF0623F2E08C08C3621F495
S1131450832D8068382E02C0883641F4F70193FD4D
S1131460859193FF81917F018111B3CF982F9F7D47
S11314709554933028F40C5F1F4F9FE399830DC05C
S1131480833631F0833771F0833509F059C021C0B8
S1131490F801808189830E5F1F4F88248394912CE7
S11314A0530113C02801F2E04F0E511CF801A08033
S11314B0B18036FE03C0692D70E002C06FEF7FEF8C
S11314C0C5010E94FD0C4C018201F32DFF773F2ED4
S11314D016C0280122E0420E511CF801A080B18000
S11314E036FE03C0692D70E002C06FEF7FEFC501C7
S11314F00E94EB0C4C01F32DF0683F2E820133FC6B
S11315001BC0822D90E088169906B0F4B60180E2E3
S113151090E00E94080D2A94F4CFF50137FC8591E0
S113152037FE81915F01B60190E00E94080D211001
S11315302A9421E0821A91088114910471F7E8C079
S1131540843611F0893641F5F80137FE07C0608111
S11315507181828193810C5F1F4F08C0608171810A
S1131560072E000C880B990B0E5F1F4FF32DFF768F
S11315703F2E97FF09C090958095709561957F4F98
S11315808F4F9F4FF0683F2E2AE030E0A3010E9466
S1131590440D882E861845C0853731F4232D2F7EBF
S11315A0B22E2AE030E025C0932D997FB92E8F36D4
S11315B0C1F018F4883579F0B5C0803719F0883750
S11315C021F0B0C0E92FE061BE2EB4FE0DC0FB2DAA
S11315D0F460BF2E09C034FE0AC0292F2660B22E43
S11315E006C028E030E005C020E130E002C020E180
S11315F032E0F801B7FE07C0608171818281938176
S11316000C5F1F4F06C06081718180E090E00E5F27
S11316101F4FA3010E94440D882E8618FB2DFF77CF
S11316203F2E36FE0DC0232D2E7FA22E891458F492
S113163034FE0BC032FC09C0832D8E7EA82E05C05B
S1131640B82CA32C03C0B82C01C0B92CA4FE0FC025
S1131650FE01E80DF11D8081803321F49A2D997EDD
S1131660A92E09C0A2FE06C0B394B39404C08A2D67
S1131670867809F0B394A3FC11C0A0FE06C0B2148E
S113168088F4280C922C9B180EC0B21460F4B60196
S113169080E290E00E94080DB394F7CFB21418F4DE
S11316A02B1802C0982C212CA4FE10C0B60180E394
S11316B090E00E94080DA2FE17C0A1FC03C088E7B9
S11316C090E002C088E590E0B6010CC08A2D8678CF
S11316D059F0A1FE02C08BE201C080E2A7FC8DE2BA
S11316E0B60190E00E94080D891438F4B60180E335
S11316F090E00E94080D9A94F7CF8A94F301E80DC4
S1131700F11D8081B60190E00E94080D8110F5CF93
S1131710222009F442CEB60180E290E00E94080D36
S11317202A94F6CFF6018681978102C08FEF9FEF4E
S11317302B96CDBFDEBFDF91CF911F910F91FF900C
S1131740EF90DF90CF90BF90AF909F908F907F905D
S11317506F905F904F903F902F9008950F931F9339
S1131760CF93DF93869F8001879F100D969F100D66
S11317701124C8010E94CA0BEC01009729F0A801AA
S113178060E070E00E94F60CCE01DF91CF911F91D2
S11317900F9108950F931F93CF93DF938230910598
S11317A010F482E090E0E091F020F091F12020E04C
S11317B030E0A0E0B0E0309719F14081518102811E
S11317C0138148175907C8F08417950769F41097CF
S11317D031F012960C93129713961C9327C0009322
S11317E0F0201093F12022C02115310519F0421781
S11317F0530718F49A01BD01EF01DF01F801DBCFB3
S113180021153105F9F0281B390B2430310580F4FA
S11318108A819B816115710521F0FB018283938389
S113182004C08093F0209093F120FE01329644C0CE
S1131830FE01E20FF31F8193919322503109288313
S113184039833AC02091EE203091EF20232B41F4CC
S113185020910220309103202093EE203093EF203A
S113186020910020309101202115310541F42DB73C
S11318703EB74091042050910520241B350BE09184
S1131880EE20F091EF20E217F307A0F42E1B3F0B9C
S11318902817390778F0AC014E5F5F4F24173507DE
S11318A048F04E0F5F1F4093EE205093EF2081933A
S11318B0919302C0E0E0F0E0CF01DF91CF911F915E
S11318C00F910895CF93DF93009709F481C0FC0131
S11318D0329712821382A091F020B091F1201097D8
S11318E081F420813181820F931F2091EE20309169
S11318F0EF202817390751F5E093EE20F093EF20FD
S113190067C0ED0120E030E0CE17DF0740F44A81E4
S11319105B819E0141155105F1F0EA01F5CFC283C7
S1131920D38340815181840F951FC817D90759F477
S113193088819981840F951F0296808391838A817F
S11319409B81828393832115310529F4E093F02050
S1131950F093F1203DC0E901EA83FB834991599159
S1131960C40FD51FEC17FD0761F480819181840FAA
S1131970951F0296E90188839983828193818A83E2
S11319809B83E0E0F0E012968D919C911397009771
S113199019F0FD01DC01F7CF8D919C9111979D0108
S11319A02E5F3F4F820F931F2091EE203091EF2046
S11319B02817390769F4309729F41092F02010920F
S11319C0F12002C012821382A093EE20B093EF2084
S11319D0DF91CF910895FC01059061507040011092
S11319E0D8F7809590958E0F9F1F0895DC0101C054
S11319F06D9341505040E0F70895FC0161507040F0
S1131A0001900110D8F7809590958E0F9F1F08952F
S1131A100F931F93CF93DF93FB01238121FD03C019
S1131A208FEF9FEF2CC022FF16C04681578124817F
S1131A3035814217530744F4A081B1819D012F5F82
S1131A403F4F208331838C93268137812F5F3F4F13
S1131A502683378314C08B01EC01FB010084F185DC
S1131A60E02D1995892BE1F6D80116968D919C915C
S1131A701797019616968D939C931797CE01DF9135
S1131A80CF911F910F910895FA01AA27283051F19F
S1131A90203181F1E8946F936E7F6E5F7F4F8F4F9B
S1131AA09F4FAF4FB1E03ED0B4E03CD0670F781FFA
S1131AB0891F9A1FA11D680F791F8A1F911DA11DDF
S1131AC06A0F711D811D911DA11D20D009F4689418
S1131AD03F912AE0269F11243019305D3193DEF6C0
S1131AE0CF010895462F4770405D4193B3E00FD076
S1131AF0C9F7F6CF462F4F70405D4A3318F0495D61
S1131B0031FD4052419302D0A9F7EACFB4E0A69543
S1131B109795879577956795BA95C9F70097610565
S1131B20710508959B01AC010A2E069457954795BB
S1131B3037952795BA95C9F7620F731F841F951FB0
S10B1B40A01D0895F894FFCFE5
S1131B480000F220200088D582C38B6C174099BB13
S1131B58963D17B751B9C1A8A4BCFAED6BBC50A403
S1131B68A0B92CEC8843BDFBE33C2731783F40A463
S1131B78DFBF8F62594317B75139E5F27F3F46B645
S1131B8817C017B751398D286D3F0000404117B76A
S1131B98513952696E203D2025642C20435F6B2007
S1131BA83D2025642C2078315F6B6D31203D202544
S1131BB8642C2078325F6B6D31203D2025642C2005
S1111BC86374726C4F7574203D2025640A000E
S9030000FC
