S02B0000786D6567615F4844445F537461746553706163655F66756C6C4F62735F496E7465677261746F722E65
S11300000C9400010C9426010C9426010C942601F6
S11300100C9426010C9426010C9426010C942601C0
S11300200C9426010C9426010C9426010C942601B0
S11300300C9426010C9426010C9426010C942601A0
S11300400C9426010C9426010C9426010C94260190
S11300500C9439010C9426010C9426010C9426016D
S11300600C9426010C9426010C9426010C94260170
S11300700C9426010C9426010C9426010C94260160
S11300800C9426010C9426010C9426010C94260150
S11300900C9426010C9426010C9426010C94260140
S11300A00C9426010C9426010C9426010C94260130
S11300B00C9426010C9426010C9426010C94260120
S11300C00C9426010C9426010C9426010C94260110
S11300D00C9426010C9426010C9426010C94260100
S11300E00C9426010C9426010C9426010C942601F0
S11300F00C9426010C9426010C9426010C942601E0
S11301000C9426010C9426010C9426010C942601CF
S11301100C9426010C9426010C9426010C942601BF
S11301200C9426010C9426010C9426010C942601AF
S11301300C9426010C9426010C9426010C9426019F
S11301400C9426010C9426010C9426010C9426018F
S11301500C9426010C9426010C9426010C9426017F
S11301600C9426010C9426010C9426010C9426016F
S11301700C9426010C9426010C9426010C9426015F
S11301800C9426010C9426010C9426010C9426014F
S11301900C9426010C9426010C9426010C9426013F
S11301A00C9426010C9426010C9426010C9426012F
S11301B00C9426010C9426010C9426010C9426011F
S11301C00C9426010C9426010C9426010C9426010F
S11301D00C9426010C9426010C9426010C942601FF
S11301E00C9426010C9426010C9426010C942601EF
S11301F00C9426010C9426010C9426010C942801DD
S113020011241FBECFEFCDBFDFE3DEBF00E00CBF84
S113021018BE19BE1ABE1BBE10E2A0E0B0E2EAE8A6
S1130220F4E100E00BBF02C007900D92AE34B107B9
S1130230D9F71BBE20E2AEE4B0E201C01D92A63B9A
S1130240B207E1F70E9425060C94430A0C940000BF
S1130250CF93C82F8A3019F48DE00E942801809131
S1130260A10885FFFCCFC093A00880E090E0CF9167
S113027008951F920F920FB60F92112408B60F9291
S113028018BE09B60F9219BE0BB60F921BBE8F9201
S11302909F92AF92BF92CF92DF92EF92FF922F93F1
S11302A03F934F935F936F937F938F939F93AF93FA
S11302B0BF93EF93FF938091240290912502809342
S11302C0822090938320609182207091832080E02B
S11302D090E00E94900720E030EF4FE755E40E9441
S11302E0E8062FE832EC45EF5CE30E947606609363
S11302F07E2070937F208093802090938120809132
S11303007E2090917F20A0918020B09181208093C5
S1130310982090939920A0939A20B0939B20809149
S113032020089091210880938C2090938D208091B7
S11303308C2090918D20992324F410928C2010927B
S11303408D2060918C2070918D20072E000C880BDD
S1130350990B0E94920720E030E04FE254E40E949F
S1130360E806609388207093892080938A20909374
S11303708B20609188207091892080918A209091AF
S11303808B2020E030EF4FE755E40E94470860934C
S11303908420709385208093862090938720609199
S11303A0842070918520809186209091872020E080
S11303B030E0A9010E94E306882344F410928420CB
S11303C01092852010928620109287208DEC9CEC50
S11303D0ACECBEE38093722090937320A0937420BE
S11303E0B093752060911A2070911B2080911C207D
S11303F090911D2020915E2030915F2040916020DB
S1130400509161200E9447086B017C016091162085
S113041070911720809118209091192020916A20C2
S113042030916B2040916C2050916D200E944708C0
S11304304B015C0160911220709113208091142073
S1130440909115202091662030916720409168207A
S1130450509169200E9447089B01AC01C501B40179
S11304600E9477064B015C016091522070915320E9
S113047080915420909155202091622030916320E6
S113048040916420509165200E9447089B01AC0173
S1130490C501B4010E9477069B01AC01C701B601F6
S11304A00E94760660937A2070937B2080937C2050
S11304B090937D2080917A2090917B20A0917C2044
S11304C0B0917D20BC01CD019F77209146203091D1
S11304D0472040914820509149200E944208882397
S11304E0D4F040917A2050917B2060917C207091CF
S11304F07D208091462090914720A0914820B09182
S1130500492077FBB7F980937A2090937B20A093BE
S11305107C20B0937D2060917A2070917B20809123
S11305207C2090917D202091722030917320409105
S11305307420509175200E94770620914E203091AE
S11305404F2040915020509151200E94470820E0B4
S113055030E040E055E40E94770660937620709383
S11305607720809378209093792060917620709101
S11305707720809178209091792020E030E0A901C3
S11305800E94E306882344F4109276201092772088
S113059010927820109279206091762070917720C3
S11305A0809178209091792020E030EF4FE755E456
S11305B00E944208181664F480E090EFAFE7B5E4B7
S11305C08093762090937720A0937820B09379201D
S11305D08091250380FFFCCF609184207091852059
S11305E080918620909187200E945A076093380357
S11305F0709339038091250381FFFCCF60917620AD
S11306007091772080917820909179200E945A07E8
S113061060933A0370933B0380E88093670680916C
S1130620882090918920A0918A20B0918B2080937A
S11306309C2090939D20A0939E20B0939F20609136
S11306404220709143208091442090914520209134
S11306506A2030916B2040916C2050916D200E9453
S113066047086B017C0160913E2070913F2080918E
S11306704020909141202091662030916720409144
S11306806820509169200E9447089B01AC01C70172
S1130690B6010E9477066B017C0160915A2070912B
S11306A05B2080915C2090915D20209162203091AC
S11306B0632040916420509165200E9447089B016B
S11306C0AC01C701B6010E9477066B017C01609101
S11306D05620709157208091582090915920209154
S11306E01A2030911B2040911C2050911D200E9403
S11306F0470820915E2030915F2040916020509106
S113070061200E9447089B01AC01C701B6010E9409
S113071077066B017C0160910E2070910F2080910F
S113072010209091112020916E2030916F204091E3
S11307307020509171200E9447089B01AC01C701B1
S1130740B6010E9477066093A8207093A920809335
S1130750AA209093AB2060913A2070913B20809125
S11307603C2090913D2020916A2030916B20409153
S11307706C2050916D200E9447086B017C016091B0
S11307803620709137208091382090913920209123
S113079066203091672040916820509169200E9422
S11307A047089B01AC01C701B6010E9477066B01A3
S11307B07C0160913220709133208091342090919B
S11307C03520209162203091632040916420509123
S11307D065200E9447089B01AC01C701B6010E9435
S11307E077066B017C016091222070912320809117
S11307F024209091252020911A2030911B20409193
S11308001C2050911D200E94470820915E203091A9
S11308105F2040916020509161200E9447089B0115
S1130820AC01C701B6010E9477066B017C0160919F
S11308300A2070910B2080910C2090910D20209122
S11308406E2030916F2040917020509171200E9451
S113085047089B01AC01C701B6010E94770660936B
S1130860A4207093A5208093A6209093A720609144
S11308702E2070912F208091302090913120209152
S11308806A2030916B2040916C2050916D200E9421
S113089047086B017C0160912A2070912B20809184
S11308A02C2090912D20209166203091672040913A
S11308B06820509169200E9447089B01AC01C70140
S11308C0B6010E9477066B017C016091262070912D
S11308D02720809128209091292020916220309116
S11308E0632040916420509165200E9447089B0139
S11308F0AC01C701B6010E9477066B017C016091CF
S11309001E2070911F208091202090912120209101
S11309101A2030911B2040911C2050911D200E94D0
S1130920470820915E2030915F20409160205091D3
S113093061200E9447089B01AC01C701B6010E94D7
S113094077066B017C0160910620709107208091ED
S113095008209091092020916E2030916F204091C1
S11309607020509171200E9447089B01AC01C7017F
S1130970B6010E947706609394207093952080932B
S1130980962090939720609198207091992080915F
S11309909A2090919B2020919C2030919D20409101
S11309A09E2050919F200E94760620915E203091D7
S11309B05F2040916020509161200E9477066093EF
S11309C0A0207093A1208093A2209093A3208091D3
S11309D0A8209091A920A091AA20B091AB20809347
S11309E06A2090936B20A0936C20B0936D2080912B
S11309F0A4209091A520A091A620B091A720809337
S1130A00662090936720A0936820B093692080911A
S1130A10942090919520A0919620B0919720809356
S1130A20622090936320A0936420B093652080910A
S1130A30A0209091A120A091A220B091A320809306
S1130A405E2090935F20A0936020B09361208091FA
S1130A509C2090919D20A0919E20B0919F208093F6
S1130A606E2090936F20A0937020B0937120FF911B
S1130A70EF91BF91AF919F918F917F916F915F9112
S1130A804F913F912F91FF90EF90DF90CF90BF90C7
S1130A90AF909F908F900F900BBE0F9009BE0F9058
S1130AA008BE0F900FBE0F901F901895E0E5F0E080
S1130AB08081826080838091510081FFFCCF88ED2A
S1130AC084BF81E0809340000895E0E4F6E088E08C
S1130AD0818384E08283E0EAF8E085818360858312
S1130AE08BE6868380EB878384818860848360E0DF
S1130AF070E088E291E00E94B4080895E0E6F6E030
S1130B0083E0828380898360808BE0E8F1E088E67B
S1130B108083808589608087E0E0F8E0838188664F
S1130B2083838081816080830895AAECB1E092E0A0
S1130B309C93E82FF0E084911C920895CF93DF9367
S1130B40EC01C11582E0D80739F480E20E949505D2
S1130B5090E08C879D8706C084E20E94950590E012
S1130B608C879D87DF91CF91089580E092E00E9469
S1130B709E05E0E0F2E08181886081838281826069
S1130B80828380A1816080A3848182608483808148
S1130B90816080830895CF93DF93EC01C11583E0D6
S1130BA0D80789F480E30E949505898781E30E9430
S1130BB09505888784E30E9495058B8785E30E94C9
S1130BC095058A8710C082E30E949505898783E38F
S1130BD00E949505888786E30E9495058B8787E3A5
S1130BE00E9495058A87DF91CF91089580E293E072
S1130BF00E94CB05E0E2F3E08181806481838281FD
S1130C008283118E138E80818D60808380E093E0D7
S1130C100E94CB05E0E0F3E08181806481838281DE
S1130C208283118E138E80818D60808308959C0150
S1130C30E0E4F8E08181818396819160968326A324
S1130C4037A380818360808308950E9456052FEF27
S1130C5083ED90E3215080409040E1F700C0000014
S1130C600E947E050E9465050E94F6050E94B50556
S1130C7080E88093610660914620709147208091BE
S1130C804820909149209B01AC010E9477069B016A
S1130C90AC0160E070EF8FE795E40E94E806609392
S1130CA04E2070934F208093502090935120609158
S1130CB04A2070914B2080914C2090914D2020E04F
S1130CC034E244EF5AE40E9447080E9461076093AB
S1130CD08E2070938F2080918E2090918F200E947F
S1130CE0170687E08093A2007894FFCF5058BB2763
S1130CF0AA270E948E060C9408080E94FA0738F06E
S1130D000E94010820F039F49F3F19F426F40C9452
S1130D10F7070EF4E095E7FB0C94F107E92F0E9426
S1130D20190858F3BA17620773078407950720F068
S1130D3079F4A6F50C943B080EF4E0950B2EBA2F2B
S1130D40A02D0B01B90190010C01CA01A0011124CD
S1130D50FF27591B99F0593F50F4503E68F11A1679
S1130D60F040A22F232F342F4427585FF3CF46950A
S1130D7037952795A795F0405395C9F77EF41F162C
S1130D80BA0B620B730B840BBAF09150A1F0FF0FF6
S1130D90BB1F661F771F881FC2F70EC0BA0F621FE2
S1130DA0731F841F48F4879577956795B795F795D2
S1130DB09E3F08F0B0CF9395880F08F09927EE0F67
S1130DC09795879508950E94CD0708F481E00895CA
S1130DD00E94FC060C9408080E94010858F00E9426
S1130DE0FA0740F029F45F3F29F00C94F107511100
S1130DF00C943C080C94F7070E94190868F3992393
S1130E00B1F3552391F3951B550BBB27AA27621702
S1130E107307840738F09F5F5F4F220F331F441F0F
S1130E20AA1FA9F335D00E2E3AF0E0E832D0915043
S1130E305040E695001CCAF72BD0FE2F29D0660F30
S1130E40771F881FBB1F261737074807AB07B0E873
S1130E5009F0BB0B802DBF01FF2793585F4F3AF079
S1130E609E3F510578F00C94F1070C943C085F3FC9
S1130E70E4F3983ED4F3869577956795B795F795FF
S1130E809F5FC9F7880F911D9695879597F90895E7
S1130E90E1E0660F771F881FBB1F62177307840783
S1130EA0BA0720F0621B730B840BBA0BEE1F88F792
S1130EB0E09508950E9461076894B1110C943C0870
S1130EC008950E94210888F09F5798F0B92F992718
S1130ED0B751B0F0E1F0660F771F881F991F1AF021
S1130EE0BA95C9F714C0B13091F00E943B08B1E043
S1130EF008950C943B08672F782F8827B85F39F042
S1130F00B93FCCF3869577956795B395D9F73EF4B9
S1130F1090958095709561957F4F8F4F9F4F089561
S1130F20E89409C097FB3EF490958095709561957F
S1130F307F4F8F4F9F4F9923A9F0F92F96E9BB2735
S1130F409395F695879577956795B795F111F8CFB1
S1130F50FAF4BB0F11F460FF1BC06F5F7F4F8F4F1C
S1130F609F4F16C0882311F096E911C0772321F012
S1130F709EE8872F762F05C0662371F096E8862FAA
S1130F8070E060E02AF09A95660F771F881FDAF701
S1130F90880F9695879597F90895990F0008550F2E
S1130FA0AA0BE0E8FEEF16161706E807F907C0F0EB
S1130FB012161306E407F50798F0621B730B840BF3
S1130FC0950B39F40A2661F0232B242B252B21F4CD
S1130FD008950A2609F4A140A6958FEF811D811D6D
S1130FE0089597F99F6780E870E060E008959FEFA7
S1130FF080EC089500240A941616170618060906AC
S1131000089500240A94121613061406050608957A
S1131010092E0394000C11F4882352F0BB0F40F402
S1131020BF2B11F460FF04C06F5F7F4F8F4F9F4F42
S1131030089557FD9058440F551F59F05F3F71F0C4
S11310404795880F97FB991F61F09F3F79F087952B
S11310500895121613061406551FF2CF4695F1DFB4
S113106008C0161617061806991FF1CF8695710544
S1131070610508940895E894BB2766277727CB0178
S113108097F908950E94CD0708F48FEF08950E9400
S11310905A080C9408080E94FA0738F00E940108C4
S11310A020F0952311F00C94F1070C94F707112408
S11310B00C943C080E94190870F3959FC1F3950F96
S11310C050E0551F629FF001729FBB27F00DB11DC8
S11310D0639FAA27F00DB11DAA1F649F6627B00D58
S11310E0A11D661F829F2227B00DA11D621F739F41
S11310F0B00DA11D621F839FA00D611D221F749F4F
S11311003327A00D611D231F849F600D211D822F95
S1131110762F6A2F11249F5750409AF0F1F08823BC
S11311204AF0EE0FFF1FBB1F661F771F881F9150E9
S11311305040A9F79E3F510580F00C94F1070C94A0
S11311403C085F3FE4F3983ED4F386957795679522
S1131150B795F795E7959F5FC1F7FE2B880F911D13
S11311609695879597F908950F931F93CF93DF93DF
S1131170009731F46115710519F480E090E03AC0EC
S11311808B01EC016EE070E081E090E00E94FF08CA
S1131190FC01892B91F380E883830115110571F01B
S11311A00287138781E883838091AC209091AD20DE
S11311B0892B21F4E093AC20F093AD202097C9F063
S11311C0C087D1878381826083838091AE20909190
S11311D0AF20892B71F4E093AE20F093AF2080917F
S11311E0B0209091B120892B21F4E093B020F093AA
S11311F0B120CF01DF91CF911F910F9108950F93EB
S11312001F93CF93DF93869F8001879F100D969F36
S1131210100D1124C8010E941B09EC01009729F04C
S1131220A80160E070E00E943C0ACE01DF91CF91FA
S11312301F910F9108950F931F93CF93DF938230E3
S1131240910510F482E090E0E091B420F091B52093
S113125020E030E0A0E0B0E0309719F14081518106
S11312600281138148175907C8F08417950769F458
S1131270109731F012960C93129713961C9327C073
S11312800093B4201093B52022C02115310519F024
S11312904217530718F49A01BD01EF01DF01F80169
S11312A0DBCF21153105F9F0281B390B243031052A
S11312B080F48A819B816115710521F0FB01828391
S11312C0938304C08093B4209093B520FE0132969A
S11312D044C0FE01E20FF31F819391932250310920
S11312E0288339833AC02091B2203091B320232B34
S11312F041F420910220309103202093B2203093B6
S1131300B32020910020309101202115310541F4B2
S11313102DB73EB74091042050910520241B350B76
S1131320E091B220F091B320E217F307A0F42E1B52
S11313303F0B2817390778F0AC014E5F5F4F241735
S1131340350748F04E0F5F1F4093B2205093B320EF
S11313508193919302C0E0E0F0E0CF01DF91CF915F
S11313601F910F910895CF93DF93009709F481C0E3
S1131370FC01329712821382A091B420B091B5205F
S1131380109781F420813181820F931F2091B22024
S11313903091B3202817390751F5E093B220F09328
S11313A0B32067C0ED0120E030E0CE17DF0740F442
S11313B04A815B819E0141155105F1F0EA01F5CFA7
S11313C0C283D38340815181840F951FC817D907E5
S11313D059F488819981840F951F029680839183A3
S11313E08A819B81828393832115310529F4E093BB
S11313F0B420F093B5203DC0E901EA83FB83499111
S11314005991C40FD51FEC17FD0761F480819181B8
S1131410840F951F0296E9018883998382819381C1
S11314208A839B83E0E0F0E012968D919C91139760
S1131430009719F0FD01DC01F7CF8D919C91119774
S11314409D012E5F3F4F820F931F2091B220309158
S1131450B3202817390769F4309729F41092B4207F
S11314601092B52002C012821382A093B220B093CE
S1131470B320DF91CF910895DC0101C06D934150F9
S10D14805040E0F70895F894FFCF00
S113148A0000B620200088D582C38B6C174099BB14
S113149A963DD7346F3CD6C509404B59063C2CECD3
S11314AA8843BDFBE33C569F6B3F9A0834C15305FE
S11314BABCC317B75139E9B77F3F3A921BC017B774
S11114CA51398D286D3F0000404117B751394C
S9030000FC
