S0270000586D6567615F546573745F41445F44415F537465705F496E7075745F4131552E73726563B4
S11300000C9400010C9426010C9426010C942601F6
S11300100C9426010C9426010C9426010C942601C0
S11300200C9426010C9426010C9426010C942601B0
S11300300C9426010C9426010C9426010C942601A0
S11300400C9426010C9426010C9426010C94260190
S11300500C9426010C9426010C9426010C94260180
S11300600C9426010C9426010C9426010C94260170
S11300700C9426010C9426010C9426010C94260160
S11300800C9426010C9426010C9426010C94260150
S11300900C9426010C9426010C9426010C94260140
S11300A00C9426010C9426010C9426010C94260130
S11300B00C9426010C9426010C9426010C94260120
S11300C00C9426010C9426010C9426010C94260110
S11300D00C9426010C9426010C9426010C94260100
S11300E00C9426010C9426010C9426010C942601F0
S11300F00C9426010C9426010C9426010C942601E0
S11301000C9426010C9426010C9426010C942601CF
S11301100C9426010C9426010C9426010C942601BF
S11301200C9426010C9426010C9426010C942601AF
S11301300C9426010C9426010C9426010C9426019F
S11301400C9426010C9426010C9426010C9426018F
S11301500C9426010C9426010C9426010C9426017F
S11301600C9426010C9426010C9426010C9426016F
S11301700C9426010C9426010C9426010C9426015F
S11301800C9426010C9426010C9426010C9426014F
S11301900C9426010C9426010C9426010C9426013F
S11301A00C9426010C9426010C9426010C9426012F
S11301B00C9426010C9426010C9426010C9426011F
S11301C00C9426010C9426010C9426010C9426010F
S11301D00C9426010C9426010C9426010C942601FF
S11301E00C9426010C9426010C9426010C942601EF
S11301F00C9426010C9426010C9426010C942801DD
S113020011241FBECFEFCDBFDFE3DEBF00E00CBF84
S113021018BE19BE1ABE1BBE10E2A0E0B0E2E8E2AE
S1130220F2E100E00BBF02C007900D92A631B107C6
S1130230D9F71BBE20E2A6E1B0E201C01D92A032B4
S1130240B207E1F70E94DC010C9412090C9400003F
S1130250CF93C82F8A3019F48DE00E942801809131
S1130260B10985FFFCCFC093B00980E090E0CF9145
S11302700895AAECB1E092E09C93E82FF0E0849119
S11302801C920895CF93DF93EC01C11583E0D80746
S113029089F480E30E943901898781E30E9439014E
S11302A0888784E30E9439018B8785E30E943901A2
S11302B08A8710C082E30E943901898783E30E9400
S11302C03901888786E30E9439018B8787E30E947E
S11302D039018A87DF91CF910895CF93DF93EC01A1
S11302E0C11582E0D80739F480E20E94390190E018
S11302F08C879D8706C084E20E94390190E08C8738
S11303009D87DF91CF9108958CE08093210681E051
S11303108093410682E0809350008091510081FFD8
S1130320FCCF88ED84BF81E08093400080E092E0C0
S11303300E946D01E0E0F2E08181897E8183828107
S11303408F7882838481887F82608483A0E2B2E094
S11303508C91807E81608C938AE111968C9380814C
S11303608160808380E293E00E944201E0E2F3E056
S1130370818180648183828188608283138E8081FD
S11303808D6080830895E0E6F6E080E8818380E470
S11303908283E0EBF9E08581836085838BE4868347
S11303A080EA878384818860848360E070E088E2E7
S11303B091E00E94BB0408950E9484010E94C3013D
S11303C00F2EC12CD12CF0E8EF2EFFEBFF2EF02DD9
S11303D027E137EB41ED58E3C701B6010E946A02F9
S11303E06B017C0120E030E040E85FE30E944904B7
S11303F0882344F00F2EC12CD12CF0E8EF2EFFEB14
S1130400FF2EF02D20E030E0A901C701B6010E94C3
S1130410D60218161CF0812C912C540120E030E0F7
S1130420A901C701B6010E944904181644F40F2E0D
S1130430812C912CF0E8AF2EFFE3BF2EF02D20E0AD
S113044030E040EA50E4C501B4010E944E042B019F
S11304503C01E0E0F2E080818460808380912302AB
S113046080FFFCCFE0E0F2E081E083A3C4A1D5A14A
S11304708091250380FFFCCF00E213E0F801C08FD8
S1130480D18F20E030E040EA50E4C301B2010E9481
S1130490DB0220E030EF4FE755E40E944E040E9457
S11304A07C030E944D03F801628F738FE4E4F6E04D
S11304B0908181E089278083DF93CF9386E090E267
S11304C09F938F930E9406050F900F900F900F90AB
S11304D07FCF5058BB27AA270E9481020C94F703B0
S11304E00E94E90338F00E94F00320F039F49F3FA2
S11304F019F426F40C94E6030EF4E095E7FB0C944F
S1130500B703E92F0E94080458F3BA176207730768
S11305108407950720F079F4A6F50C9442040EF4B0
S1130520E0950B2EBA2FA02D0B01B90190010C01FF
S1130530CA01A0011124FF27591B99F0593F50F417
S1130540503E68F11A16F040A22F232F342F44276F
S1130550585FF3CF469537952795A795F040539567
S1130560C9F77EF41F16BA0B620B730B840BBAF037
S11305709150A1F0FF0FBB1F661F771F881FC2F7A2
S11305800EC0BA0F621F731F841F48F487957795B6
S11305906795B795F7959E3F08F0B0CF9395880F70
S11305A008F09927EE0F9795879508950E94930375
S11305B008F481E008950E94EF020C94F7030E946E
S11305C0F00358F00E94E90340F029F45F3F29F05A
S11305D00C94B70351110C9443040C94E6030E9449
S11305E0080468F39923B1F3552391F3951B550B34
S11305F0BB27AA2762177307840738F09F5F5F4FF2
S1130600220F331F441FAA1FA9F335D00E2E3AF030
S1130610E0E832D091505040E695001CCAF72BD048
S1130620FE2F29D0660F771F881FBB1F2617370799
S11306304807AB07B0E809F0BB0B802DBF01FF27CB
S113064093585F4F3AF09E3F510578F00C94B703EE
S11306500C9443045F3FE4F3983ED4F38695779576
S11306606795B795F7959F5FC9F7880F911D969584
S1130670879597F90895E1E0660F771F881FBB1FE0
S1130680621773078407BA0720F0621B730B840B8D
S1130690BA0BEE1F88F7E09508950E94100488F0C5
S11306A09F5798F0B92F9927B751B0F0E1F0660F32
S11306B0771F881F991F1AF0BA95C9F714C0B13073
S11306C091F00E944204B1E008950C944204672F13
S11306D0782F8827B85F39F0B93FCCF386957795A2
S11306E06795B395D9F73EF490958095709561958B
S11306F07F4F8F4F9F4F08950E942A0490F09F3799
S113070048F4911116F00C94430460E070E080E822
S11307109FEB089526F41B16611D711D811D0C9419
S1130720BD030C94D803990F0008550FAA0BE0E8F9
S1130730FEEF16161706E807F907C0F0121613069F
S1130740E407F50798F0621B730B840B950B39F4DF
S11307500A2661F0232B242B252B21F408950A2645
S113076009F4A140A6958FEF811D811D089597F985
S11307709F6780E870E060E00895882371F4772330
S113078021F09850872B762F07C0662311F4992700
S11307900DC09051862B70E060E02AF09A95660FA8
S11307A0771F881FDAF7880F9695879597F908952C
S11307B09F3F31F0915020F4879577956795B795D1
S11307C0880F911D9695879597F908959FEF80EC72
S11307D0089500240A9416161706180609060895A3
S11307E000240A9412161306140605060895092E09
S11307F00394000C11F4882352F0BB0F40F4BF2B78
S113080011F460FF04C06F5F7F4F8F4F9F4F0895B7
S113081057FD9058440F551F59F05F3F71F04795AD
S1130820880F97FB991F61F09F3F79F08795089592
S1130830121613061406551FF2CF4695F1DF08C0B1
S1130840161617061806991FF1CF869571056105CE
S1130850089408950E941004A0F0BEE7B91788F424
S1130860BB279F3860F41616B11D672F782F882791
S1130870985FF7CF869577956795B11D93959639CF
S1130880C8F30895E894BB2766277727CB0197F927
S113089008950E94930308F48FEF08950E94610461
S11308A00C94F7030E94E90338F00E94F00320F04F
S11308B0952311F00C94B7030C94E60311240C94C3
S11308C043040E94080470F3959FC1F3950F50E010
S11308D0551F629FF001729FBB27F00DB11D639FEE
S11308E0AA27F00DB11DAA1F649F6627B00DA11D94
S11308F0661F829F2227B00DA11D621F739FB00D3A
S1130900A11D621F839FA00D611D221F749F3327A9
S1130910A00D611D231F849F600D211D822F762F42
S11309206A2F11249F5750409AF0F1F088234AF01F
S1130930EE0FFF1FBB1F661F771F881F915050408B
S1130940A9F79E3F510580F00C94B7030C9443041F
S11309505F3FE4F3983ED4F3869577956795B79512
S1130960F795E7959F5FC1F7FE2B880F911D96952C
S1130970879597F908950F931F93CF93DF9300976B
S113098031F46115710519F480E090E03AC08B01EF
S1130990EC016EE070E081E090E00E941E07FC0133
S11309A0892B91F380E883830115110571F0028787
S11309B0138781E883838091162090911720892BD7
S11309C021F4E0931620F09317202097C9F0C087F4
S11309D0D18783818260838380911820909119202C
S11309E0892B71F4E0931820F093192080911A2038
S11309F090911B20892B21F4E0931A20F0931B2063
S1130A00CF01DF91CF911F910F910895CF93DF9381
S1130A10CDB7DEB7AE014A5F5F4FFA0161917191C4
S1130A20AF0180911820909119200E941A05DF913E
S1130A30CF9108952F923F924F925F926F927F923F
S1130A408F929F92AF92BF92CF92DF92EF92FF92DA
S1130A500F931F93CF93DF93CDB7DEB72B97CDBF03
S1130A60DEBF6C017B018A01FC011682178283813F
S1130A7081FFCCC1CE0101963C01F6019381F701BF
S1130A8093FD859193FF81917F01882309F4BAC175
S1130A90853239F493FD859193FF81917F018532ED
S1130AA029F4B60190E00E947808E7CF912C212C1C
S1130AB0312CFFE1F315D8F08B3279F038F4803221
S1130AC079F08332A1F4232D20611DC08D3261F0B1
S1130AD0803369F4232D216016C0832D8260382E63
S1130AE0E32DE4603E2E2AC0F32DF8601DC037FCD0
S1130AF02DC020ED280F2A3040F08E32B9F436FC98
S1130B0081C1232D2064322E19C036FE06C08AE02E
S1130B10989E200D1124922E11C0EAE02E9E200DE5
S1130B201124222EF32DF0623F2E08C08C3621F4BE
S1130B30832D8068382E02C0883641F4F70193FD76
S1130B40859193FF81917F018111B3CF982F9F7D70
S1130B509554933028F40C5F1F4F9FE399830DC085
S1130B60833631F0833771F0833509F059C021C0E1
S1130B70F801808189830E5F1F4F88248394912C10
S1130B80530113C02801F2E04F0E511CF801A0805C
S1130B90B18036FE03C0692D70E002C06FEF7FEFB5
S1130BA0C5010E946D084C018201F32DFF773F2E91
S1130BB016C0280122E0420E511CF801A080B18029
S1130BC036FE03C0692D70E002C06FEF7FEFC501F0
S1130BD00E945B084C01F32DF0683F2E820133FC28
S1130BE01BC0822D90E088169906B0F4B60180E20D
S1130BF090E00E9478082A94F4CFF50137FC85919F
S1130C0037FE81915F01B60190E00E9478082110BF
S1130C102A9421E0821A91088114910471F7E8C0A2
S1130C20843611F0893641F5F80137FE07C060813A
S1130C307181828193810C5F1F4F08C06081718133
S1130C40072E000C880B990B0E5F1F4FF32DFF76B8
S1130C503F2E97FF09C090958095709561957F4FC1
S1130C608F4F9F4FF0683F2E2AE030E0A3010E948F
S1130C70B408882E861845C0853731F4232D2F7E7D
S1130C80B22E2AE030E025C0932D997FB92E8F36FD
S1130C90C1F018F4883579F0B5C0803719F0883779
S1130CA021F0B0C0E92FE061BE2EB4FE0DC0FB2DD3
S1130CB0F460BF2E09C034FE0AC0292F2660B22E6C
S1130CC006C028E030E005C020E130E002C020E1A9
S1130CD032E0F801B7FE07C060817181828193819F
S1130CE00C5F1F4F06C06081718180E090E00E5F51
S1130CF01F4FA3010E94B408882E8618FB2DFF778E
S1130D003F2E36FE0DC0232D2E7FA22E891458F4BB
S1130D1034FE0BC032FC09C0832D8E7EA82E05C084
S1130D20B82CA32C03C0B82C01C0B92CA4FE0FC04E
S1130D30FE01E80DF11D8081803321F49A2D997E06
S1130D40A92E09C0A2FE06C0B394B39404C08A2D90
S1130D50867809F0B394A3FC11C0A0FE06C0B214B7
S1130D6088F4280C922C9B180EC0B21460F4B601BF
S1130D7080E290E00E947808B394F7CFB21418F49C
S1130D802B1802C0982C212CA4FE10C0B60180E3BD
S1130D9090E00E947808A2FE17C0A1FC03C088E777
S1130DA090E002C088E590E0B6010CC08A2D8678F8
S1130DB059F0A1FE02C08BE201C080E2A7FC8DE2E3
S1130DC0B60190E00E947808891438F4B60180E3F3
S1130DD090E00E9478089A94F7CF8A94F301E80D82
S1130DE0F11D8081B60190E00E9478088110F5CF52
S1130DF0222009F442CEB60180E290E00E947808F5
S1130E002A94F6CFF6018681978102C08FEF9FEF77
S1130E102B96CDBFDEBFDF91CF911F910F91FF9035
S1130E20EF90DF90CF90BF90AF909F908F907F9086
S1130E306F905F904F903F902F9008950F931F9362
S1130E40CF93DF93869F8001879F100D969F100D8F
S1130E501124C8010E943A07EC01009729F0A80167
S1130E6060E070E00E946608CE01DF91CF911F918F
S1130E700F9108950F931F93CF93DF9382309105C1
S1130E8010F482E090E0E0911E20F0911F2020E019
S1130E9030E0A0E0B0E0309719F140815181028147
S1130EA0138148175907C8F08417950769F41097F8
S1130EB031F012960C93129713961C9327C000934B
S1130EC01E2010931F2022C02115310519F042174E
S1130ED0530718F49A01BD01EF01DF01F801DBCFDC
S1130EE021153105F9F0281B390B2430310580F424
S1130EF08A819B816115710521F0FB0182839383B3
S1130F0004C080931E2090931F20FE01329644C09B
S1130F10FE01E20FF31F819391932250310928833C
S1130F2039833AC020911C2030911D20232B41F499
S1130F30209102203091032020931C2030931D2007
S1130F4020910020309101202115310541F42DB765
S1130F503EB74091042050910520241B350BE091AD
S1130F601C20F0911D20E217F307A0F42E1B3F0B69
S1130F702817390778F0AC014E5F5F4F2417350707
S1130F8048F04E0F5F1F40931C2050931D20819307
S1130F90919302C0E0E0F0E0CF01DF91CF911F9187
S1130FA00F910895CF93DF93009709F481C0FC015A
S1130FB0329712821382A0911E20B0911F201097A5
S1130FC081F420813181820F931F20911C20309164
S1130FD01D202817390751F5E0931C20F0931D209C
S1130FE067C0ED0120E030E0CE17DF0740F44A810E
S1130FF05B819E0141155105F1F0EA01F5CFC283F1
S1131000D38340815181840F951FC817D90759F4A0
S113101088819981840F951F0296808391838A81A8
S11310209B81828393832115310529F4E0931E204B
S1131030F0931F203DC0E901EA83FB834991599154
S1131040C40FD51FEC17FD0761F480819181840FD3
S1131050951F0296E90188839983828193818A830B
S11310609B83E0E0F0E012968D919C91139700979A
S113107019F0FD01DC01F7CF8D919C9111979D0131
S11310802E5F3F4F820F931F20911C2030911D2013
S11310902817390769F4309729F410921E2010920A
S11310A01F2002C012821382A0931C20B0931D2023
S11310B0DF91CF910895FC010590615070400110BB
S11310C0D8F7809590958E0F9F1F0895DC0101C07D
S11310D06D9341505040E0F70895FC016150704019
S11310E001900110D8F7809590958E0F9F1F089559
S11310F00F931F93CF93DF93FB01238121FD03C043
S11311008FEF9FEF2CC022FF16C0468157812481A8
S113111035814217530744F4A081B1819D012F5FAB
S11311203F4F208331838C93268137812F5F3F4F3C
S11311302683378314C08B01EC01FB010084F18505
S1131140E02D1995892BE1F6D80116968D919C9185
S11311501797019616968D939C931797CE01DF915E
S1131160CF911F910F910895FA01AA27283051F1C8
S1131170203181F1E8946F936E7F6E5F7F4F8F4FC4
S11311809F4FAF4FB1E03ED0B4E03CD0670F781F23
S1131190891F9A1FA11D680F791F8A1F911DA11D08
S11311A06A0F711D811D911DA11D20D009F4689441
S11311B03F912AE0269F11243019305D3193DEF6E9
S11311C0CF010895462F4770405D4193B3E00FD09F
S11311D0C9F7F6CF462F4F70405D4A3318F0495D8A
S11311E031FD4052419302D0A9F7EACFB4E0A6956D
S11311F09795879577956795BA95C9F7009761058F
S1131200710508959B01AC010A2E069457954795E4
S113121037952795BA95C9F7620F731F841F951FD9
S10B1220A01D0895F894FFCF0E
S113122800002020200041445F76616C7565203DF4
S10912382025640A0000F9
S9030000FC
