:1000000019C020C01FC01EC01DC01CC01BC01AC00C
:1000100019C018C017C016C015C014C013C012C034
:1000200011C010C00FC00EC00DC00CC00BC00AC064
:1000300009C008C011241FBECFEFD4E0DEBFCDBF82
:1000400002D02BC0DDCF8FEF84B983E287B980ED7A
:1000500097E09093870080938600E0E8F0E080814D
:1000600082688083E1E8F0E080818A6180838CEDA2
:1000700095E0909389008093880082E088B998B1D8
:1000800083E0892788B92FEF89E698E121508040E5
:0E0090009040E1F700C00000F2CFF894FFCFDF
:00000001FF
