:1000000019C020C01FC01EC01DC01CC01BC01AC00C
:1000100019C018C017C016C015C014C013C012C034
:1000200011C010C00FC00EC00DC00CC00BC00AC064
:1000300009C008C011241FBECFEFD4E0DEBFCDBF82
:1000400002D044C0DDCF8FEF84B983E287B980ED61
:1000500097E09093870080938600E0E8F0E080814D
:1000600082688083E1E8F0E080818A61808388EEA5
:1000700093E0909389008093880082E088B9E8E853
:10008000F0E0808191810296918380838FE39CE9E7
:100090000197F1F700C0000098B180E2892788B984
:1000A00080819181813D974050F388EE93E0909359
:1000B00089008093880098B183E0892788B98FE30D
:1000C0009CE90197F1F700C00000D9CFF894FFCF69
:00000001FF
