:100000000C9400010C9426010C9426010C942601FA
:100010000C9426010C9426010C9426010C942601C4
:100020000C9426010C9426010C9426010C942601B4
:100030000C9426010C9426010C9426010C942601A4
:100040000C9426010C9426010C9426010C94260194
:100050000C9439010C9426010C9426010C94260171
:100060000C9426010C9426010C9426010C94260174
:100070000C9426010C9426010C9426010C94260164
:100080000C9426010C9426010C9426010C94260154
:100090000C9426010C9426010C9426010C94260144
:1000A0000C9426010C9426010C9426010C94260134
:1000B0000C9426010C9426010C9426010C94260124
:1000C0000C9426010C9426010C9426010C94260114
:1000D0000C9426010C9426010C9426010C94260104
:1000E0000C9426010C9426010C9426010C942601F4
:1000F0000C9426010C9426010C9426010C942601E4
:100100000C9426010C9426010C9426010C942601D3
:100110000C9426010C9426010C9426010C942601C3
:100120000C9426010C9426010C9426010C942601B3
:100130000C9426010C9426010C9426010C942601A3
:100140000C9426010C9426010C9426010C94260193
:100150000C9426010C9426010C9426010C94260183
:100160000C9426010C9426010C9426010C94260173
:100170000C9426010C9426010C9426010C94260163
:100180000C9426010C9426010C9426010C94260153
:100190000C9426010C9426010C9426010C94260143
:1001A0000C9426010C9426010C9426010C94260133
:1001B0000C9426010C9426010C9426010C94260123
:1001C0000C9426010C9426010C9426010C94260113
:1001D0000C9426010C9426010C9426010C94260103
:1001E0000C9426010C9426010C9426010C942601F3
:1001F0000C9426010C9426010C9426010C942801E1
:1002000011241FBECFEFCDBFDFE3DEBF00E00CBF88
:1002100018BE19BE1ABE1BBE10E2A0E0B0E2EAE5AD
:10022000F0E100E00BBF02C007900D92AE30B107C5
:10023000D9F71BBE20E2AEE0B0E201C01D92AE34A1
:10024000B207E1F70E940D040C942B080C940000F7
:10025000CF93C82F8A3019F48DE00E942801809135
:10026000A10885FFFCCFC093A00880E090E0CF916B
:1002700008951F920F920FB60F92112408B60F9295
:1002800018BE09B60F9219BE0BB60F921BBECF92C5
:10029000DF92EF92FF922F933F934F935F936F9371
:1002A0007F938F939F93AF93BF93EF93FF9380912F
:1002B0002402909125028093322090933320609104
:1002C00032207091332080E090E00E94780520E099
:1002D00030EF4FE755E40E94D0042FE832EC45EFB1
:1002E0005CE30E945E0460932E2070932F20809325
:1002F00030209093312080912008909121088093A4
:10030000402090934120809140209091412099235A
:1003100024F410924020109241206091402070916E
:100320004120072E000C880B990B0E947A0520E0D3
:1003300030E04FE254E40E94D00460933C2070937C
:100340003D2080933E2090933F2060913C2070910F
:100350003D2080913E2090913F2020E030EF4FE7FC
:1003600055E40E942F0660933820709339208093C3
:100370003A2090933B2060913820709139208091F1
:100380003A2090913B2020E030E0A9010E94CB046C
:10039000882344F4109238201092392010923A2089
:1003A00010923B2060912E2070912F208091302060
:1003B0009091312020913C2030913D2040913E2071
:1003C00050913F200E945E0460933420709335204A
:1003D00080933620909337208AE999E9A9E9BEEB0A
:1003E0008093222090932320A0932420B093252053
:1003F0006091342070913520809136209091372083
:100400002CEC3EEE49E45EE30E942F0620911E2074
:1004100030911F2040912020509121200E945F04A4
:100420006B017C016091162070911720809118203B
:10043000909119202CEC3EEE49E45EE30E942F06D9
:100440009B01AC01C701B6010E945E0460932A20A3
:1004500070932B2080932C2090932D2080912A2024
:1004600090912B20A0912C20B0912D2080931E20C4
:1004700090931F20A0932020B093212080911E20D4
:1004800090911F20A0912020B091212080931A20CC
:1004900090931B20A0931C20B0931D2080913420AA
:1004A00090913520A0913620B0913720809316206E
:1004B00090931720A0931820B093192080911620B4
:1004C00090911720A0911820B091192080931220AC
:1004D00090931320A0931420B093152080912A208C
:1004E00090912B20A0912C20B0912D20BC01CD010A
:1004F0009F7720910620309107204091082050914D
:1005000009200E942A068823D4F040912A20509185
:100510002B2060912C2070912D20809106209091AD
:100520000720A0910820B091092077FBB7F98093AC
:100530002A2090932B20A0932C20B0932D20609103
:100540002A2070912B2080912C2090912D20209199
:1005500022203091232040912420509125200E9478
:100560005F0420910E2030910F2040911020509177
:1005700011200E942F0620E030E040E055E40E9468
:100580005F04609326207093272080932820909307
:100590002920609126207091272080912820909119
:1005A000292020E030E0A9010E94CB04882344F4F4
:1005B0001092262010922720109228201092292095
:1005C00060912620709127208091282090912920E9
:1005D00020E030EF4FE755E40E942A06181664F435
:1005E00080E090EFAFE7B5E480932620909327203A
:1005F000A0932820B09329208091250380FFFCCF71
:10060000609138207091392080913A2090913B2060
:100610000E9442056093380370933903809125034B
:1006200081FFFCCF609126207091272080912820A7
:10063000909129200E94420560933A0370933B03F6
:1006400080E880936706FF91EF91BF91AF919F91F2
:100650008F917F916F915F914F913F912F91FF907B
:10066000EF90DF90CF900F900BBE0F9009BE0F90D0
:1006700008BE0F900FBE0F901F901895E0E5F0E0B8
:100680008081826080838091510081FFFCCF88ED62
:1006900084BF81E0809340000895E0E4F6E088E0C4
:1006A000818384E08283E0EAF8E08581836085834A
:1006B0008BE6868380EB878384818860848360E017
:1006C00070E088E291E00E949C060895E0E6F6E082
:1006D00083E0828380898360808BE0E8F1E088E6B4
:1006E0008083808589608087E0E0F8E08381886688
:1006F00083838081816080830895AAECB1E092E0D9
:100700009C93E82FF0E084911C920895CF93DF939F
:10071000EC01C11582E0D80739F480E20E947D0324
:1007200090E08C879D8706C084E20E947D0390E064
:100730008C879D87DF91CF91089580E092E00E94A1
:100740008603E0E0F2E081818860818382818260BB
:10075000828380A1816080A3848182608483808180
:10076000816080830895CF93DF93EC01C11583E00E
:10077000D80789F480E30E947D03898781E30E9482
:100780007D03888784E30E947D038B8785E30E9435
:100790007D038A8710C082E30E947D03898783E3FB
:1007A0000E947D03888786E30E947D038B8787E311
:1007B0000E947D038A87DF91CF91089580E293E0C4
:1007C0000E94B303E0E2F3E081818064818382814F
:1007D0008283118E138E80818D60808380E093E010
:1007E0000E94B303E0E0F3E0818180648183828131
:1007F0008283118E138E80818D60808308959C0189
:10080000E0E4F8E08181818396819160968326A35C
:1008100037A380818360808308950E943E032FEF79
:1008200083ED90E3215080409040E1F700C000004C
:100830000E9466030E944D030E94DE030E949D03F6
:1008400080E8809361066091062070910720809176
:100850000820909109209B01AC010E945F049B013C
:10086000AC0160E070EF8FE795E40E94D0046093E4
:100870000E2070930F208093102090931120609190
:100880000A2070910B2080910C2090910D2020E087
:1008900034E244EF5AE40E942F060E944905609317
:1008A00042207093432080914220909143200E94E7
:1008B000FF0387E08093A2007894FFCF5058BB27B6
:1008C000AA270E9476040C94F0050E94E20538F0F5
:1008D0000E94E90520F039F49F3F19F426F40C94A6
:1008E000DF050EF4E095E7FB0C94D905E92F0E9493
:1008F000010658F3BA17620773078407950720F0BB
:1009000079F4A6F50C9423060EF4E0950B2EBA2F7D
:10091000A02D0B01B90190010C01CA01A001112405
:10092000FF27591B99F0593F50F4503E68F11A16B1
:10093000F040A22F232F342F4427585FF3CF469542
:1009400037952795A795F0405395C9F77EF41F1664
:10095000BA0B620B730B840BBAF09150A1F0FF0F2E
:10096000BB1F661F771F881FC2F70EC0BA0F621F1A
:10097000731F841F48F4879577956795B795F7950A
:100980009E3F08F0B0CF9395880F08F09927EE0F9F
:100990009795879508950E94B50508F481E008951C
:1009A0000E94E4040C94F0050E94E90558F00E94AE
:1009B000E20540F029F45F3F29F00C94D90551116C
:1009C0000C9424060C94DF050E94010668F3992319
:1009D000B1F3552391F3951B550BBB27AA2762173B
:1009E0007307840738F09F5F5F4F220F331F441F48
:1009F000AA1FA9F335D00E2E3AF0E0E832D091507C
:100A00005040E695001CCAF72BD0FE2F29D0660F68
:100A1000771F881FBB1F261737074807AB07B0E8AB
:100A200009F0BB0B802DBF01FF2793585F4F3AF0B1
:100A30009E3F510578F00C94D9050C9424065F3F35
:100A4000E4F3983ED4F3869577956795B795F79537
:100A50009F5FC9F7880F911D9695879597F908951F
:100A6000E1E0660F771F881FBB1F621773078407BB
:100A7000BA0720F0621B730B840BBA0BEE1F88F7CA
:100A8000E09508950E9449056894B1110C942406DC
:100A900008950E94090688F09F5798F0B92F99276A
:100AA000B751B0F0E1F0660F771F881F991F1AF059
:100AB000BA95C9F714C0B13091F00E942306B1E095
:100AC00008950C942306672F782F8827B85F39F094
:100AD000B93FCCF3869577956795B395D9F73EF4F2
:100AE00090958095709561957F4F8F4F9F4F08959A
:100AF000E89409C097FB3EF49095809570956195B8
:100B00007F4F8F4F9F4F9923A9F0F92F96E9BB276D
:100B10009395F695879577956795B795F111F8CFE9
:100B2000FAF4BB0F11F460FF1BC06F5F7F4F8F4F54
:100B30009F4F16C0882311F096E911C0772321F04A
:100B40009EE8872F762F05C0662371F096E8862FE2
:100B500070E060E02AF09A95660F771F881FDAF739
:100B6000880F9695879597F90895990F0008550F66
:100B7000AA0BE0E8FEEF16161706E807F907C0F023
:100B800012161306E407F50798F0621B730B840B2B
:100B9000950B39F40A2661F0232B242B252B21F405
:100BA00008950A2609F4A140A6958FEF811D811DA5
:100BB000089597F99F6780E870E060E008959FEFDF
:100BC00080EC089500240A941616170618060906E4
:100BD000089500240A9412161306140605060895B3
:100BE000092E0394000C11F4882352F0BB0F40F43B
:100BF000BF2B11F460FF04C06F5F7F4F8F4F9F4F7B
:100C0000089557FD9058440F551F59F05F3F71F0FC
:100C10004795880F97FB991F61F09F3F79F0879563
:100C20000895121613061406551FF2CF4695F1DFEC
:100C300008C0161617061806991FF1CF869571057C
:100C4000610508940895E894BB2766277727CB01B0
:100C500097F908950E94B50508F48FEF08950E9452
:100C600042060C94F0050E94E20538F00E94E90566
:100C700020F0952311F00C94D9050C94DF05112474
:100C80000C9424060E94010670F3959FC1F3950F02
:100C900050E0551F629FF001729FBB27F00DB11D00
:100CA000639FAA27F00DB11DAA1F649F6627B00D90
:100CB000A11D661F829F2227B00DA11D621F739F79
:100CC000B00DA11D621F839FA00D611D221F749F87
:100CD0003327A00D611D231F849F600D211D822FCE
:100CE000762F6A2F11249F5750409AF0F1F08823F5
:100CF0004AF0EE0FFF1FBB1F661F771F881F915022
:100D00005040A9F79E3F510580F00C94D9050C94F2
:100D100024065F3FE4F3983ED4F386957795679574
:100D2000B795F795E7959F5FC1F7FE2B880F911D4B
:100D30009695879597F908950F931F93CF93DF9317
:100D4000009731F46115710519F480E090E03AC024
:100D50008B01EC016EE070E081E090E00E94E7061C
:100D6000FC01892B91F380E883830115110571F053
:100D70000287138781E883838091442090914520E6
:100D8000892B21F4E0934420F09345202097C9F06B
:100D9000C087D18783818260838380914620909130
:100DA0004720892B71F4E0934620F09347208091EF
:100DB000482090914920892B21F4E0934820F0931A
:100DC0004920CF01DF91CF911F910F9108950F938B
:100DD0001F93CF93DF93869F8001879F100D969F6F
:100DE000100D1124C8010E940307EC01009729F09F
:100DF000A80160E070E00E942408CE01DF91CF914D
:100E00001F910F9108950F931F93CF93DF9382301B
:100E1000910510F482E090E0E0914C20F0914D209B
:100E200020E030E0A0E0B0E0309719F1408151813E
:100E30000281138148175907C8F08417950769F490
:100E4000109731F012960C93129713961C9327C0AB
:100E500000934C2010934D2022C02115310519F02C
:100E60004217530718F49A01BD01EF01DF01F801A1
:100E7000DBCF21153105F9F0281B390B2430310562
:100E800080F48A819B816115710521F0FB018283C9
:100E9000938304C080934C2090934D20FE013296A2
:100EA00044C0FE01E20FF31F819391932250310958
:100EB000288339833AC020914A2030914B20232B3C
:100EC00041F4209102203091032020934A20309356
:100ED0004B2020910020309101202115310541F453
:100EE0002DB73EB74091042050910520241B350BAF
:100EF000E0914A20F0914B20E217F307A0F42E1B5B
:100F00003F0B2817390778F0AC014E5F5F4F24176D
:100F1000350748F04E0F5F1F40934A2050934B20F7
:100F20008193919302C0E0E0F0E0CF01DF91CF9197
:100F30001F910F910895CF93DF93009709F481C01B
:100F4000FC01329712821382A0914C20B0914D2067
:100F5000109781F420813181820F931F20914A20C4
:100F600030914B202817390751F5E0934A20F09330
:100F70004B2067C0ED0120E030E0CE17DF0740F4E2
:100F80004A815B819E0141155105F1F0EA01F5CFDF
:100F9000C283D38340815181840F951FC817D9071D
:100FA00059F488819981840F951F029680839183DB
:100FB0008A819B81828393832115310529F4E093F3
:100FC0004C20F0934D203DC0E901EA83FB83499119
:100FD0005991C40FD51FEC17FD0761F480819181F1
:100FE000840F951F0296E9018883998382819381FA
:100FF0008A839B83E0E0F0E012968D919C91139799
:10100000009719F0FD01DC01F7CF8D919C911197AC
:101010009D012E5F3F4F820F931F20914A203091F8
:101020004B202817390769F4309729F410924C2087
:1010300010924D2002C012821382A0934A20B093D6
:101040004B20DF91CF910895DC0101C06D93415099
:0A1050005040E0F70895F894FFCF38
:0E105A0000004E2020000000404117B7513921
:00000001FF
