:1000000019C033C032C031C030C02FC02EC02DC087
:100010002CC02BC02AC0B8C028C027C026C025C00D
:1000200024C023C022C021C020C01FC01EC01DC0CC
:100030001CC01BC011241FBECFEFD4E0DEBFCDBF5C
:1000400011E0A0E0B1E0EEEEF7E002C005900D9205
:10005000AE30B107D9F721E0AEE0B1E001C01D92AA
:10006000A333B207E1F718D0C0C3CACFCF93C82FCC
:100070008A3011F48DE0FADF8091C00085FFFCCF5B
:10008000C093C60080E090E0CF9108958EBD0DB47E
:1000900007FEFDCF8EB5089580E090E0A0E4B0ECBF
:1000A00080931C0190931D01A0931E01B0931F012A
:1000B00080E090E0A0EAB0E48093200190932101D9
:1000C000A0932201B093230180E090E0A0E8BFE379
:1000D0008093280190932901A0932A01B0932B01CA
:1000E0001092C50087E68093C40088E18093C10028
:1000F00080E091E09093300180932F0110927C007A
:1001000087E880937A008CE284B982E88AB982E534
:100110008CBD1DBCE1E8F0E0808189608083EFE662
:10012000F0E080818260808378948FE99FE09093F3
:100130008900809388002FE632E143E05AE3609122
:100140001C0170911D0180911E0190911F01E9D049
:1001500060931C0170931D0180931E0190931F01F9
:1001600020E030E040E450E4B5D2882324F380E07E
:1001700090E0A0E4B0EC80931C0190931D01A0934B
:100180001E01B0931F01D7CF1F920F920FB60F928F
:1001900011248F929F92AF92BF92CF92DF92EF92F3
:1001A000FF922F933F934F935F936F937F938F9320
:1001B0009F93AF93BF93EF93FF93EAE7F0E08081C3
:1001C0008064808380917A0086FDFCCF6091780006
:1001D00070917900709318016093170180E090E0AE
:1001E00098D120E030E040EA5CE378D220E030E0D3
:1001F00040E251E495D09B01AC01609312017093F1
:100200001301809314019093150160911C0170916A
:100210001D0180911E0190911F0182D060932401E5
:100220007093250180932601909327012091280146
:100230003091290140912A0150912B014FD24B015D
:100240005C0160930E0170930F01809310019093F5
:1002500011019F77C0902001D0902101E0902201F0
:10026000F0902301A701960135D2882354F0B7FA04
:10027000F7F8C0920E01D0920F01E0921001F092B7
:10028000110120E030E040E251E460910E017091F4
:100290000F01809110019091110143D020E030E0D6
:1002A00040E855E41BD220E030E040EA51E49DD024
:1002B0006DD103D170931B0160931A019B0122271A
:1002C0003F7020E3230F20932C01609316018BB124
:1002D0008F778BB980912C01D9DE809319018091A1
:1002E0001601D4DE809319018BB180688BB9FF9120
:1002F000EF91BF91AF919F918F917F916F915F919E
:100300004F913F912F91FF90EF90DF90CF90BF9052
:10031000AF909F908F900F900FBE0F901F901895E9
:100320005058BB27AA270ED084C175D130F07AD19E
:1003300020F031F49F3F11F41EF46AC10EF4E095F1
:10034000E7FB37C1E92F86D180F3BA17620773073D
:100350008407950718F071F49EF5B5C10EF4E09589
:100360000B2EBA2FA02D0B01B90190010C01CA016F
:10037000A0011124FF27591B99F0593F50F4503E1A
:1003800068F11A16F040A22F232F342F4427585F0C
:10039000F3CF469537952795A795F0405395C9F724
:1003A0007EF41F16BA0B620B730B840BBAF09150DC
:1003B000A1F0FF0FBB1F661F771F881FC2F70EC07B
:1003C000BA0F621F731F841F48F48795779567954E
:1003D000B795F7959E3F08F0B3CF9395880F08F037
:1003E0009927EE0F9795879508950CD022C11AD1C1
:1003F00040F011D130F021F45F3F19F0DAC0511113
:1004000063C106C127D198F39923C9F35523B1F3EA
:10041000951B550BBB27AA2762177307840738F073
:100420009F5F5F4F220F331F441FAA1FA9F333D0D2
:100430000E2E3AF0E0E830D091505040E695001C86
:10044000CAF729D0FE2F27D0660F771F881FBB1F42
:10045000261737074807AB07B0E809F0BB0B802D1C
:10046000BF01FF2793585F4F2AF09E3F510568F068
:10047000A0C02AC15F3FECF3983EDCF386957795E8
:100480006795B795F7959F5FC9F7880F911D96956A
:10049000879597F90895E1E0660F771F881FBB1FC6
:1004A000621773078407BA0720F0621B730B840B73
:1004B000BA0BEE1F88F7E0950895D4D088F09F57C7
:1004C00090F0B92F9927B751A0F0D1F0660F771FA0
:1004D000881F991F1AF0BA95C9F712C0B13081F080
:1004E000F2D0B1E00895EFC0672F782F8827B85F6A
:1004F00039F0B93FCCF3869577956795B395D9F7E1
:100500003EF490958095709561957F4F8F4F9F4FEA
:100510000895E89409C097FB3EF4909580957095F6
:1005200061957F4F8F4F9F4F9923A9F0F92F96E93F
:10053000BB279395F695879577956795B795F111B4
:10054000F8CFFAF4BB0F11F460FF1BC06F5F7F4F51
:100550008F4F9F4F16C0882311F096E911C0772363
:1005600021F09EE8872F762F05C0662371F096E86C
:10057000862F70E060E02AF09A95660F771F881F3B
:10058000DAF7880F9695879597F9089585D080F0CA
:100590009F3740F491110EF097C060E070E080E862
:1005A0009FEB089526F41B16611D711D811D07C068
:1005B00021C097F99F6780E870E060E00895882384
:1005C00071F4772321F09850872B762F07C066238C
:1005D00011F499270DC09051862B70E060E02AF04D
:1005E0009A95660F771F881FDAF7880F969587957B
:1005F00097F908959F3F31F0915020F487957795B2
:100600006795B795880F911D9695879597F90895E9
:100610009FEF80EC089500240A941616170618061A
:100620000906089500240A941216130614060506F6
:100630000895092E0394000C11F4882352F0BB0F87
:1006400040F4BF2B11F460FF04C06F5F7F4F8F4FEA
:100650009F4F089557FD9058440F551F59F05F3F25
:1006600071F04795880F97FB991F61F09F3F79F0D4
:1006700087950895121613061406551FF2CF469556
:10068000F1DF08C0161617061806991FF1CF8695D8
:100690007105610508940895E5DFA0F0BEE7B9177C
:1006A00088F4BB279F3860F41616B11D672F782F8A
:1006B0008827985FF7CF869577956795B11D9395B5
:1006C0009639C8F30895E894BB2766277727CB01AE
:1006D00097F9089566D008F48FEF08950BD0A9CF4D
:1006E0009ADF28F09FDF18F0952309F062CF90CFB2
:1006F0001124EACFAFDFA0F3959FD1F3950F50E01F
:10070000551F629FF001729FBB27F00DB11D639FC3
:10071000AA27F00DB11DAA1F649F6627B00DA11D69
:10072000661F829F2227B00DA11D621F739FB00D0F
:10073000A11D621F839FA00D611D221F749F33277F
:10074000A00D611D231F849F600D211D822F762F18
:100750006A2F11249F5750408AF0E1F088234AF015
:10076000EE0FFF1FBB1F661F771F881F9150504061
:10077000A9F79E3F510570F01CCFA6CF5F3FECF369
:10078000983EDCF3869577956795B795F795E7954D
:100790009F5FC1F7FE2B880F911D9695879597F95E
:1007A0000895990F0008550FAA0BE0E8FEEF161602
:1007B0001706E807F907C0F012161306E407F50755
:1007C00098F0621B730B840B950B39F40A2661F0C9
:1007D000232B242B252B21F408950A2609F4A1406C
:0E07E000A6958FEF811D811D0895F894FFCF1F
:0E07EE000000000200000000360000000000C5
:00000001FF
