:1000000019C020C01FC01EC01DC01CC01BC01AC00C
:1000100019C018C017C016C015C014C013C012C034
:1000200011C010C00FC00EC00DC00CC00BC00AC064
:1000300009C008C011241FBECFEFD4E0DEBFCDBF82
:1000400002D025C0DDCF80EE8AB910927C0087E80F
:1000500080937A00EAE7F0E0808180648083809179
:100060007A0086FDFCCF80917800909179008636E9
:1000700022E0920718F08FED8BB9ECCF89399140CF
:1000800018F48FEB8BB9E6CF8FE78BB9E3CFF894F9
:02009000FFCFA0
:00000001FF
