S0170000426C696E6B48656C6C6F576F726C642E7372656321
S113000019C020C01FC01EC01DC01CC01BC01AC008
S113001019C018C017C016C015C014C013C012C030
S113002011C010C00FC00EC00DC00CC00BC00AC060
S113003009C008C011241FBECFEFD4E0DEBFCDBF7E
S11300401BD029C0DDCF8FEF84B987B98EEF8AB971
S11300500895AC010DC000009F5F01C090E099239A
S1130060D1F32F5F01C020E02C33C0F3415051097C
S113007041155105C1F70895E6DF8FEF88B985B9B9
S11300808BB984EF91E0E5DF18B815B81BB884EF9D
S10D009091E0DFDFF2CFF894FFCF18
S9030000FC
