:100000000C9400010C9426010C9426010C942601FA
:100010000C9426010C9426010C9426010C942601C4
:100020000C9426010C9426010C9426010C942601B4
:100030000C9426010C9426010C9426010C942601A4
:100040000C9426010C9426010C9426010C94260194
:100050000C9439010C9426010C9426010C94260171
:100060000C9426010C9426010C9426010C94260174
:100070000C9426010C9426010C9426010C94260164
:100080000C9426010C9426010C9426010C94260154
:100090000C9426010C9426010C9426010C94260144
:1000A0000C9426010C9426010C9426010C94260134
:1000B0000C9426010C9426010C9426010C94260124
:1000C0000C9426010C9426010C9426010C94260114
:1000D0000C9426010C9426010C9426010C94260104
:1000E0000C9426010C9426010C9426010C942601F4
:1000F0000C9426010C9426010C9426010C942601E4
:100100000C9426010C9426010C9426010C942601D3
:100110000C9426010C9426010C9426010C942601C3
:100120000C9426010C9426010C9426010C942601B3
:100130000C9426010C9426010C9426010C942601A3
:100140000C9426010C9426010C9426010C94260193
:100150000C9426010C9426010C9426010C94260183
:100160000C9426010C9426010C9426010C94260173
:100170000C9426010C9426010C9426010C94260163
:100180000C9426010C9426010C9426010C94260153
:100190000C9426010C9426010C9426010C94260143
:1001A0000C9426010C9426010C9426010C94260133
:1001B0000C9426010C9426010C9426010C94260123
:1001C0000C9426010C9426010C9426010C94260113
:1001D0000C9426010C9426010C9426010C94260103
:1001E0000C9426010C9426010C9426010C942601F3
:1001F0000C9426010C9426010C9426010C942801E1
:1002000011241FBECFEFCDBFDFE3DEBF00E00CBF88
:1002100018BE19BE1ABE1BBE10E2A0E0B0E2E0E3B9
:10022000F5E100E00BBF02C007900D92A432B107C8
:10023000D9F71BBE20E2A4E2B0E201C01D92A435B2
:10024000B207E1F70E94B9030C94960A0C940000DF
:10025000CF93C82F8A3019F48DE00E942801809135
:10026000A10885FFFCCFC093A00880E090E0CF916B
:1002700008951F920F920FB60F92112408B60F9295
:1002800018BE09B60F9219BE0BB60F921BBE2F9364
:100290003F934F935F936F937F938F939F93AF930E
:1002A000BF93EF93FF938091240290912502809356
:1002B000382090933920609138207091392080E067
:1002C00090E00E941B0520E030EF4FE755E40E94CC
:1002D000730460933420709335208093362090937C
:1002E0003720809120089091210880934620909398
:1002F00047208091462090914720992324F4109222
:100300004620109247206091462070914720072E8A
:10031000000C880B990B0E941D0520E030E04FE295
:1003200054E40E94730460934220709343208093AE
:100330004420909345206091422070914320809109
:1003400044209091452020E030EF4FE755E40E9493
:10035000D20560933E2070933F208093402090937D
:10036000412060913E2070913F20809140209091EB
:10037000412020E030E0A9010E946E04882344F46B
:1003800010923E2010923F20109240201092412067
:1003900060913420709135208091362090913720E3
:1003A000209142203091432040914420509145209B
:1003B0000E94010460933A2070933B2080933C207C
:1003C00090933D208AE999E9A9E9BEE3809328202A
:1003D00090932920A0932A20B0932B2060910E2087
:1003E00070910F20809110209091112020913A203F
:1003F00030913B2040913C2050913D200E94D205FD
:10040000609330207093312080933220909333207A
:100410008091302090913120A0913220B0913320F2
:10042000BC01CD019F77209106203091072040919B
:100430000820509109200E94CD058823D4F04091D6
:100440003020509131206091322070913320809182
:10045000062090910720A0910820B091092077FBF9
:10046000B7F98093302090933120A0933220B0933D
:100470003320609130207091312080913220909112
:100480003320209128203091292040912A2050911A
:100490002B200E940204209124203091252040919D
:1004A0002620509127200E94D20520E030E040E035
:1004B00055E40E94020460932C2070932D208093B9
:1004C0002E2090932F2060912C2070912D208091D0
:1004D0002E2090912F2020E030E0A9010E946E0490
:1004E000882344F410922C2010922D2010922E205C
:1004F00010922F2060912C2070912D2080912E2021
:1005000090912F2020E030EF4FE755E40E94CD0579
:10051000181664F480E090EFAFE7B5E480932C20E8
:1005200090932D20A0932E20B0932F2060913E20F9
:1005300070913F2080914020909141200E94E504DD
:100540007F936F9382E190E29F938F930E948A063C
:100550000F900F900F900F908091250380FFFCCF9C
:1005600060913E2070913F208091402090914120E9
:100570000E94E5046093380370933903809125034A
:1005800081FFFCCF60912C2070912D2080912E2036
:1005900090912F200E94E50460933A0370933B03EF
:1005A00080E880936706FF91EF91BF91AF919F9193
:1005B0008F917F916F915F914F913F912F910F900C
:1005C0000BBE0F9009BE0F9008BE0F900FBE0F908C
:1005D0001F901895E0E5F0E0808182608083809133
:1005E000510081FFFCCF88ED84BF81E08093400003
:1005F0000895E0E4F6E088E0818384E08283E0EA25
:10060000F8E08581836085838BE6868380EB878332
:1006100084818860848360E070E088E291E00E94D9
:100620003F060895E0E6F6E083E0828380898360F8
:10063000808BE0E8F1E088E68083808589608087B0
:10064000E0E0F8E083818866838380818160808335
:100650000895AAECB1E092E09C93E82FF0E0849139
:100660001C920895CF93DF93EC01C11582E0D80767
:1006700039F480E20E94290390E08C879D8706C0B0
:1006800084E20E94290390E08C879D87DF91CF91BF
:10069000089580E092E00E943203E0E0F2E0818180
:1006A0008860818382818260828380A1816080A34F
:1006B0008481826084838081816080830895CF9368
:1006C000DF93EC01C11583E0D80789F480E30E9431
:1006D0002903898781E30E942903888784E30E9494
:1006E00029038B8785E30E9429038A8710C082E350
:1006F0000E942903898783E30E942903888786E370
:100700000E9429038B8787E30E9429038A87DF9150
:10071000CF91089580E293E00E945F03E0E2F3E06E
:1007200081818064818382818283118E138E808196
:100730008D60808380E093E00E945F03E0E0F3E05F
:1007400081818064818382818283118E138E808176
:100750008D60808308959C01E0E4F8E081818183CD
:1007600096819160968326A337A3808183608083DE
:1007700008950E94EA020E9412030E94F9020E9458
:100780008A030E94490380E88093610660910620F5
:100790007091072080910820909109209B01AC0165
:1007A0000E9402049B01AC0160E070EF8FE795E4CA
:1007B0000E94730460932420709325208093262048
:1007C0009093272060910A2070910B2080910C203B
:1007D00090910D2020E034E244EF5AE40E94D205CB
:1007E0000E94EC0460934820709349208091482037
:1007F000909149200E94AB0387E08093A2007894F7
:10080000FFCF5058BB27AA270E9419040C949305C8
:100810000E94850538F00E948C0520F039F49F3F36
:1008200019F426F40C9482050EF4E095E7FB0C9481
:100830007C05E92F0E94A40558F3BA1762077307D5
:100840008407950720F079F4A6F50C94C6050EF4FC
:10085000E0950B2EBA2FA02D0B01B90190010C01D0
:10086000CA01A0011124FF27591B99F0593F50F4E8
:10087000503E68F11A16F040A22F232F342F442740
:10088000585FF3CF469537952795A795F040539538
:10089000C9F77EF41F16BA0B620B730B840BBAF008
:1008A0009150A1F0FF0FBB1F661F771F881FC2F773
:1008B0000EC0BA0F621F731F841F48F48795779587
:1008C0006795B795F7959E3F08F0B0CF9395880F41
:1008D00008F09927EE0F9795879508950E9458057F
:1008E00008F481E008950E9487040C9493050E9407
:1008F0008C0558F00E94850540F029F45F3F29F0EF
:100900000C947C0551110C94C7050C9482050E942F
:10091000A40568F39923B1F3552391F3951B550B67
:10092000BB27AA2762177307840738F09F5F5F4FC2
:10093000220F331F441FAA1FA9F335D00E2E3AF001
:10094000E0E832D091505040E695001CCAF72BD019
:10095000FE2F29D0660F771F881FBB1F261737076A
:100960004807AB07B0E809F0BB0B802DBF01FF279C
:1009700093585F4F3AF09E3F510578F00C947C05F8
:100980000C94C7055F3FE4F3983ED4F386957795C2
:100990006795B795F7959F5FC9F7880F911D969555
:1009A000879597F90895E1E0660F771F881FBB1FB1
:1009B000621773078407BA0720F0621B730B840B5E
:1009C000BA0BEE1F88F7E09508950E94EC04689436
:1009D000B1110C94C70508950E94AC0588F09F578B
:1009E00098F0B92F9927B751B0F0E1F0660F771F53
:1009F000881F991F1AF0BA95C9F714C0B13091F049
:100A00000E94C605B1E008950C94C605672F782FA3
:100A10008827B85F39F0B93FCCF38695779567950D
:100A2000B395D9F73EF490958095709561957F4F79
:100A30008F4F9F4F0895E89409C097FB3EF490951F
:100A40008095709561957F4F8F4F9F4F9923A9F0A7
:100A5000F92F96E9BB279395F69587957795679536
:100A6000B795F111F8CFFAF4BB0F11F460FF1BC07A
:100A70006F5F7F4F8F4F9F4F16C0882311F096E90D
:100A800011C0772321F09EE8872F762F05C06623BB
:100A900071F096E8862F70E060E02AF09A95660F74
:100AA000771F881FDAF7880F9695879597F908952D
:100AB000990F0008550FAA0BE0E8FEEF161617066F
:100AC000E807F907C0F012161306E407F50798F0D7
:100AD000621B730B840B950B39F40A2661F0232BF0
:100AE000242B252B21F408950A2609F4A140A6956C
:100AF0008FEF811D811D089597F99F6780E870E051
:100B000060E008959FEF80EC089500240A94161683
:100B1000170618060906089500240A9412161306EB
:100B2000140605060895092E0394000C11F4882379
:100B300052F0BB0F40F4BF2B11F460FF04C06F5F95
:100B40007F4F8F4F9F4F089557FD9058440F551F6B
:100B500059F05F3F71F04795880F97FB991F61F03F
:100B60009F3F79F087950895121613061406551FB6
:100B7000F2CF4695F1DF08C0161617061806991F22
:100B8000F1CF86957105610508940895E894BB2717
:100B900066277727CB0197F908950E94580508F436
:100BA0008FEF08950E94E5050C9493050E9485053A
:100BB00038F00E948C0520F0952311F00C947C05F0
:100BC0000C94820511240C94C7050E94A40570F3AF
:100BD000959FC1F3950F50E0551F629FF001729FE2
:100BE000BB27F00DB11D639FAA27F00DB11DAA1FF1
:100BF000649F6627B00DA11D661F829F2227B00D3E
:100C0000A11D621F739FB00DA11D621F839FA00DC8
:100C1000611D221F749F3327A00D611D231F849F18
:100C2000600D211D822F762F6A2F11249F5750406F
:100C30009AF0F1F088234AF0EE0FFF1FBB1F661FEA
:100C4000771F881F91505040A9F79E3F510580F0B3
:100C50000C947C050C94C7055F3FE4F3983ED4F3F5
:100C6000869577956795B795F795E7959F5FC1F757
:100C7000FE2B880F911D9695879597F908950F93F0
:100C80001F93CF93DF93009731F46115710519F429
:100C900080E090E03AC08B01EC016EE070E081E012
:100CA00090E00E94A208FC01892B91F380E88383E5
:100CB0000115110571F00287138781E88383809104
:100CC0004A2090914B20892B21F4E0934A20F09305
:100CD0004B202097C9F0C087D187838182608383AE
:100CE00080914C2090914D20892B71F4E0934C2001
:100CF000F0934D2080914E2090914F20892B21F42C
:100D0000E0934E20F0934F20CF01DF91CF911F91C0
:100D10000F910895CF93DF93CDB7DEB7AE014A5F51
:100D20005F4FFA0161917191AF0180914C209091D8
:100D30004D200E949E06DF91CF9108952F923F9201
:100D40004F925F926F927F928F929F92AF92BF92DB
:100D5000CF92DF92EF92FF920F931F93CF93DF9387
:100D6000CDB7DEB72B97CDBFDEBF6C017B018A010B
:100D7000FC0116821782838181FFCCC1CE010196CE
:100D80003C01F6019381F70193FD859193FF8191D9
:100D90007F01882309F4BAC1853239F493FD859126
:100DA00093FF81917F01853229F4B60190E00E9482
:100DB000FC09E7CF912C212C312CFFE1F315D8F061
:100DC0008B3279F038F4803279F08332A1F4232D1C
:100DD00020611DC08D3261F0803369F4232D2160C4
:100DE00016C0832D8260382EE32DE4603E2E2AC08B
:100DF000F32DF8601DC037FC2DC020ED280F2A30E0
:100E000040F08E32B9F436FC81C1232D2064322E9D
:100E100019C036FE06C08AE0989E200D1124922E3D
:100E200011C0EAE02E9E200D1124222EF32DF06237
:100E30003F2E08C08C3621F4832D8068382E02C0E6
:100E4000883641F4F70193FD859193FF81917F01ED
:100E50008111B3CF982F9F7D9554933028F40C5F68
:100E60001F4F9FE399830DC0833631F0833771F0B4
:100E7000833509F059C021C0F801808189830E5F54
:100E80001F4F88248394912C530113C02801F2E052
:100E90004F0E511CF801A080B18036FE03C0692DB1
:100EA00070E002C06FEF7FEFC5010E94F1094C01B5
:100EB0008201F32DFF773F2E16C0280122E0420E5B
:100EC000511CF801A080B18036FE03C0692D70E08E
:100ED00002C06FEF7FEFC5010E94DF094C01F32DC7
:100EE000F0683F2E820133FC1BC0822D90E08816F3
:100EF0009906B0F4B60180E290E00E94FC092A94C1
:100F0000F4CFF50137FC859137FE81915F01B60181
:100F100090E00E94FC0921102A9421E0821A910895
:100F20008114910471F7E8C0843611F0893641F5D7
:100F3000F80137FE07C060817181828193810C5F67
:100F40001F4F08C060817181072E000C880B990B20
:100F50000E5F1F4FF32DFF763F2E97FF09C0909530
:100F60008095709561957F4F8F4F9F4FF0683F2E12
:100F70002AE030E0A3010E94380A882E861845C076
:100F8000853731F4232D2F7EB22E2AE030E025C0A4
:100F9000932D997FB92E8F36C1F018F4883579F0EA
:100FA000B5C0803719F0883721F0B0C0E92FE06173
:100FB000BE2EB4FE0DC0FB2DF460BF2E09C034FE62
:100FC0000AC0292F2660B22E06C028E030E005C0F6
:100FD00020E130E002C020E132E0F801B7FE07C0B6
:100FE00060817181828193810C5F1F4F06C0608197
:100FF000718180E090E00E5F1F4FA3010E94380ACC
:10100000882E8618FB2DFF773F2E36FE0DC0232D30
:101010002E7FA22E891458F434FE0BC032FC09C076
:10102000832D8E7EA82E05C0B82CA32C03C0B82C0F
:1010300001C0B92CA4FE0FC0FE01E80DF11D808196
:10104000803321F49A2D997EA92E09C0A2FE06C0F4
:10105000B394B39404C08A2D867809F0B394A3FCAA
:1010600011C0A0FE06C0B21488F4280C922C9B1864
:101070000EC0B21460F4B60180E290E00E94FC0958
:10108000B394F7CFB21418F42B1802C0982C212C6B
:10109000A4FE10C0B60180E390E00E94FC09A2FE0D
:1010A00017C0A1FC03C088E790E002C088E590E08B
:1010B000B6010CC08A2D867859F0A1FE02C08BE2E1
:1010C00001C080E2A7FC8DE2B60190E00E94FC091D
:1010D000891438F4B60180E390E00E94FC099A94E8
:1010E000F7CF8A94F301E80DF11D8081B60190E0FD
:1010F0000E94FC098110F5CF222009F442CEB601EE
:1011000080E290E00E94FC092A94F6CFF6018681E5
:10111000978102C08FEF9FEF2B96CDBFDEBFDF918F
:10112000CF911F910F91FF90EF90DF90CF90BF90E4
:10113000AF909F908F907F906F905F904F903F9077
:101140002F9008950F931F93CF93DF93869F800175
:10115000879F100D969F100D1124C8010E94BE0894
:10116000EC01009729F0A80160E070E00E94EA0914
:10117000CE01DF91CF911F910F9108950F931F938F
:10118000CF93DF938230910510F482E090E0E091FC
:101190005220F091532020E030E0A0E0B0E0309702
:1011A00019F1408151810281138148175907C8F014
:1011B0008417950769F4109731F012960C931297E3
:1011C00013961C9327C0009352201093532022C0E3
:1011D0002115310519F04217530718F49A01BD0182
:1011E000EF01DF01F801DBCF21153105F9F0281BF4
:1011F000390B2430310580F48A819B81611571059A
:1012000021F0FB018283938304C08093522090934A
:101210005320FE01329644C0FE01E20FF31F81937A
:10122000919322503109288339833AC0209150206C
:1012300030915120232B41F4209102203091032042
:101240002093502030935120209100203091012094
:101250002115310541F42DB73EB74091042050913E
:101260000520241B350BE0915020F0915120E2170E
:10127000F307A0F42E1B3F0B2817390778F0AC01B9
:101280004E5F5F4F2417350748F04E0F5F1F4093A6
:101290005020509351208193919302C0E0E0F0E000
:1012A000CF01DF91CF911F910F910895CF93DF93DD
:1012B000009709F481C0FC01329712821382A09139
:1012C0005220B0915320109781F420813181820FF8
:1012D000931F20915020309151202817390751F544
:1012E000E0935020F093512067C0ED0120E030E002
:1012F000CE17DF0740F44A815B819E0141155105FD
:10130000F1F0EA01F5CFC283D38340815181840F8C
:10131000951FC817D90759F488819981840F951FA3
:101320000296808391838A819B8182839383211596
:10133000310529F4E0935220F09353203DC0E90198
:10134000EA83FB8349915991C40FD51FEC17FD0720
:1013500061F480819181840F951F0296E901888351
:101360009983828193818A839B83E0E0F0E01296E7
:101370008D919C911397009719F0FD01DC01F7CF37
:101380008D919C9111979D012E5F3F4F820F931F6E
:1013900020915020309151202817390769F4309757
:1013A00029F4109252201092532002C0128213820C
:1013B000A0935020B0935120DF91CF910895FC016C
:1013C0000590615070400110D8F7809590958E0F70
:1013D0009F1F0895DC0101C06D9341505040E0F71C
:1013E0000895FC016150704001900110D8F780957C
:1013F00090958E0F9F1F08950F931F93CF93DF93A8
:10140000FB01238121FD03C08FEF9FEF2CC022FF42
:1014100016C046815781248135814217530744F411
:10142000A081B1819D012F5F3F4F208331838C9339
:10143000268137812F5F3F4F2683378314C08B016E
:10144000EC01FB010084F185E02D1995892BE1F673
:10145000D80116968D919C911797019616968D93AB
:101460009C931797CE01DF91CF911F910F91089513
:10147000FA01AA27283051F1203181F1E8946F93C5
:101480006E7F6E5F7F4F8F4F9F4FAF4FB1E03ED06B
:10149000B4E03CD0670F781F891F9A1FA11D680F09
:1014A000791F8A1F911DA11D6A0F711D811D911D3C
:1014B000A11D20D009F468943F912AE0269F1124B1
:1014C0003019305D3193DEF6CF010895462F477015
:1014D000405D4193B3E00FD0C9F7F6CF462F4F7070
:1014E000405D4A3318F0495D31FD4052419302D0CE
:1014F000A9F7EACFB4E0A695979587957795679574
:10150000BA95C9F700976105710508959B01AC0173
:101510000A2E06945795479537952795BA95C9F79A
:10152000620F731F841F951FA01D0895F894FFCFAD
:10153000000054202000000040416F12833A000058
:10154000803F706F736974696F6E444143203D2022
:0415500025640A0004
:00000001FF
