:1000000019C028C027C026C025C024C023C022C0D4
:1000100021C020C01FC047C01DC01CC01BC01AC0CB
:1000200019C018C017C016C015C014C013C012C024
:1000300011C010C011241FBECFEFD4E0DEBFCDBF72
:1000400021E0A0E0B1E001C01D92A530B207E1F7C8
:1000500008D079C0D5CF8EBD0DB407FEFDCF8EB5CB
:1000600008958CE284B980E88AB982E58CBD81E08C
:100070008DBD10927C0083E880937A00E1E8F0E087
:10008000808188608083AFE6B0E08C9182608C9341
:1000900078948FE79EE39093890080938800808115
:1000A00081608083FFCF1F920F920FB60F921124B1
:1000B0002F933F934F935F936F937F938F939F9370
:1000C000AF93BF93EF93FF93EAE7F0E08081806402
:1000D000808380917A0086FDFCCF8091780090919A
:1000E0007900880F991F880F991F909303018093BF
:1000F00002019C0122273F7090E3930F909304012B
:10010000809300018BB18F778BB980910401A3DFBD
:1001100080930101809100019EDF809301018BB1EA
:1001200080688BB9FF91EF91BF91AF919F918F91B3
:100130007F916F915F914F913F912F910F900FBEE3
:0A0140000F901F901895F894FFCF60
:00000001FF
