:100000000C9400010C9426010C9426010C942601FA
:100010000C9426010C9426010C9426010C942601C4
:100020000C9426010C9426010C9426010C942601B4
:100030000C9426010C9426010C9426010C942601A4
:100040000C9426010C9426010C9426010C94260194
:100050000C9426010C9426010C9426010C94260184
:100060000C9426010C9426010C9426010C94260174
:100070000C9426010C9426010C9426010C94260164
:100080000C9426010C9426010C9426010C94260154
:100090000C9426010C9426010C9426010C94260144
:1000A0000C9426010C9426010C9426010C94260134
:1000B0000C9426010C9426010C9426010C94260124
:1000C0000C9426010C9426010C9426010C94260114
:1000D0000C9426010C9426010C9426010C94260104
:1000E0000C9426010C9426010C9426010C942601F4
:1000F0000C9426010C9426010C9426010C942601E4
:100100000C9426010C9426010C9426010C942601D3
:100110000C9426010C9426010C9426010C942601C3
:100120000C9426010C9426010C9426010C942601B3
:100130000C9426010C9426010C9426010C942601A3
:100140000C9426010C9426010C9426010C94260193
:100150000C9426010C9426010C9426010C94260183
:100160000C9426010C9426010C9426010C94260173
:100170000C9426010C9426010C9426010C94260163
:100180000C9426010C9426010C9426010C94260153
:100190000C9426010C9426010C9426010C94260143
:1001A0000C9426010C9426010C9426010C94260133
:1001B0000C9426010C9426010C9426010C94260123
:1001C0000C9426010C9426010C9426010C94260113
:1001D0000C9426010C9426010C9426010C94260103
:1001E0000C9426010C9426010C9426010C942601F3
:1001F0000C9426010C9426010C9426010C942801E1
:1002000011241FBECFEFCDBFDFE3DEBF00E00CBF88
:1002100018BE19BE1ABE1BBE10E2A0E0B0E2EEEBA3
:10022000F6E000E00BBF02C007900D92A630B107C8
:10023000D9F71BBE20E2A6E0B0E201C01D92A031BA
:10024000B207E1F70E94B2010C945D030C94000028
:10025000CF93C82F8A3019F48DE00E942801809135
:10026000B10985FFFCCFC093B00980E090E0CF9149
:100270000895AAECB1E092E09C93E82FF0E084911D
:100280001C920895CF93DF93EC01C11582E0D8074B
:1002900039F480E20E94390190E08C879D8706C086
:1002A00084E20E94390190E08C879D87DF91CF9195
:1002B0000895FC0181818F7981838281867E682BFC
:1002C000462B42838081827F85608083089584E00D
:1002D0008093200682E0809350008091510081FF3E
:1002E000FCCF88ED84BF81E08093400080E092E005
:1002F0000E944201E0E0F2E08181897E8183828177
:100300008F7882838481887F82608483A0E2B2E0D8
:100310008C91807E81608C938AE111968C93808190
:100320008160808340E068E080E293E00E945901B0
:100330000895E0E6F6E080E8818380E48283E0EBE4
:10034000F9E08581836085838BE4868380EA8783F7
:1003500084818860848360E070E088E291E00E949C
:10036000CE0108950E9467010E949901E0E0F2E049
:100370008081846080838091230280FFFCCFE0E055
:10038000F2E081E083A324A135A18091250380FFC1
:10039000FCCF2093380330933903E8CF0F931F939A
:1003A000CF93DF93009731F46115710519F480E064
:1003B00090E03AC08B01EC016EE070E081E090E0EB
:1003C0000E941902FC01892B91F380E883830115B7
:1003D000110571F00287138781E8838380910620DD
:1003E00090910720892B21F4E0930620F0930720B9
:1003F0002097C9F0C087D1878381826083838091F1
:10040000082090910920892B71F4E0930820F09343
:10041000092080910A2090910B20892B21F4E093F0
:100420000A20F0930B20CF01DF91CF911F910F9104
:1004300008950F931F93CF93DF93869F8001879F2B
:10044000100D969F100D1124C8010E943502EC0179
:10045000009729F0A80160E070E00E945603CE01E9
:10046000DF91CF911F910F9108950F931F93CF9319
:10047000DF938230910510F482E090E0E0910E204D
:10048000F0910F2020E030E0A0E0B0E0309719F1CB
:10049000408151810281138148175907C8F08417A0
:1004A000950769F4109731F012960C9312971396F2
:1004B0001C9327C000930E2010930F2022C02115FB
:1004C000310519F04217530718F49A01BD01EF01E5
:1004D000DF01F801DBCF21153105F9F0281B390BBD
:1004E0002430310580F48A819B816115710521F0EA
:1004F000FB018283938304C080930E2090930F208E
:10050000FE01329644C0FE01E20FF31F81939193E6
:1005100022503109288339833AC020910C20309130
:100520000D20232B41F420910220309103202093B1
:100530000C2030930D2020910020309101202115B6
:10054000310541F42DB73EB740910420509105206C
:10055000241B350BE0910C20F0910D20E217F307DE
:10056000A0F42E1B3F0B2817390778F0AC014E5F23
:100570005F4F2417350748F04E0F5F1F40930C2044
:1005800050930D208193919302C0E0E0F0E0CF0101
:10059000DF91CF911F910F910895CF93DF93009733
:1005A00009F481C0FC01329712821382A0910E20BF
:1005B000B0910F20109781F420813181820F931F19
:1005C00020910C2030910D202817390751F5E09328
:1005D0000C20F0930D2067C0ED0120E030E0CE1735
:1005E000DF0740F44A815B819E0141155105F1F01E
:1005F000EA01F5CFC283D38340815181840F951FD7
:10060000C817D90759F488819981840F951F0296DC
:10061000808391838A819B81828393832115310515
:1006200029F4E0930E20F0930F203DC0E901EA8306
:10063000FB8349915991C40FD51FEC17FD0761F455
:1006400080819181840F951F0296E90188839983A7
:10065000828193818A839B83E0E0F0E012968D9102
:100660009C911397009719F0FD01DC01F7CF8D9154
:100670009C9111979D012E5F3F4F820F931F2091F8
:100680000C2030910D202817390769F4309729F490
:1006900010920E2010920F2002C012821382A0939B
:1006A0000C20B0930D20DF91CF910895DC0101C0A3
:0E06B0006D9341505040E0F70895F894FFCF4D
:0606BE00000010202000E6
:00000001FF
